{
  "contracts/voteCon.sol": {
    "voteCon": {
      "abi": [
        {
          "inputs": [],
          "stateMutability": "nonpayable",
          "type": "constructor"
        },
        {
          "inputs": [],
          "name": "balance",
          "outputs": [
            {
              "internalType": "uint256",
              "name": "_balance",
              "type": "uint256"
            }
          ],
          "stateMutability": "view",
          "type": "function"
        },
        {
          "inputs": [
            {
              "internalType": "uint256",
              "name": "",
              "type": "uint256"
            },
            {
              "internalType": "uint256",
              "name": "",
              "type": "uint256"
            }
          ],
          "name": "candidates",
          "outputs": [
            {
              "internalType": "string",
              "name": "name",
              "type": "string"
            },
            {
              "internalType": "address",
              "name": "candidateAddress",
              "type": "address"
            },
            {
              "internalType": "uint256",
              "name": "number",
              "type": "uint256"
            },
            {
              "internalType": "uint256",
              "name": "voteCount",
              "type": "uint256"
            }
          ],
          "stateMutability": "view",
          "type": "function"
        },
        {
          "inputs": [],
          "name": "chairperson",
          "outputs": [
            {
              "internalType": "address",
              "name": "",
              "type": "address"
            }
          ],
          "stateMutability": "view",
          "type": "function"
        },
        {
          "inputs": [
            {
              "internalType": "uint256",
              "name": "votingNumber",
              "type": "uint256"
            }
          ],
          "name": "closeVoting",
          "outputs": [],
          "stateMutability": "payable",
          "type": "function"
        },
        {
          "inputs": [
            {
              "internalType": "string[3]",
              "name": "candidateNames",
              "type": "string[3]"
            },
            {
              "internalType": "address[3]",
              "name": "candidateAddresses",
              "type": "address[3]"
            }
          ],
          "name": "createVoting",
          "outputs": [],
          "stateMutability": "nonpayable",
          "type": "function"
        },
        {
          "inputs": [
            {
              "internalType": "uint256",
              "name": "votingNumber",
              "type": "uint256"
            },
            {
              "internalType": "uint256",
              "name": "candidateNumber",
              "type": "uint256"
            }
          ],
          "name": "vote",
          "outputs": [],
          "stateMutability": "payable",
          "type": "function"
        },
        {
          "inputs": [
            {
              "internalType": "uint256",
              "name": "votingNumber",
              "type": "uint256"
            }
          ],
          "name": "votingDate",
          "outputs": [
            {
              "internalType": "uint256",
              "name": "_numberOfVating",
              "type": "uint256"
            },
            {
              "internalType": "uint256",
              "name": "_candidatesAmount",
              "type": "uint256"
            },
            {
              "internalType": "uint256",
              "name": "_votersAmount",
              "type": "uint256"
            }
          ],
          "stateMutability": "view",
          "type": "function"
        },
        {
          "inputs": [
            {
              "internalType": "uint256",
              "name": "votingNumber",
              "type": "uint256"
            }
          ],
          "name": "votingDates",
          "outputs": [
            {
              "internalType": "uint256[]",
              "name": "votes",
              "type": "uint256[]"
            }
          ],
          "stateMutability": "view",
          "type": "function"
        },
        {
          "inputs": [
            {
              "internalType": "uint256",
              "name": "",
              "type": "uint256"
            }
          ],
          "name": "votings",
          "outputs": [
            {
              "internalType": "uint256",
              "name": "numberOfVating",
              "type": "uint256"
            },
            {
              "internalType": "uint256",
              "name": "candidatesAmount",
              "type": "uint256"
            },
            {
              "internalType": "uint256",
              "name": "votersAmount",
              "type": "uint256"
            }
          ],
          "stateMutability": "view",
          "type": "function"
        },
        {
          "inputs": [
            {
              "internalType": "address payable",
              "name": "receiver",
              "type": "address"
            }
          ],
          "name": "withdrawBalance",
          "outputs": [],
          "stateMutability": "payable",
          "type": "function"
        }
      ],
      "evm": {
        "bytecode": {
          "linkReferences": {},
          "object": "60806040526064600655603c6007553480156200001b57600080fd5b50620000507f3887a080ba8fe554bc3e9ca54f221e2fce996f4b4ca96b476a186d5e312672e560001b620000fe60201b60201c565b620000847ffd3f8229ab0b6d315dbbd1b9250f2c1b0dd715ed7bee8d061f2935aff18d488560001b620000fe60201b60201c565b620000b87fc446bfbf5875c3c5efffa8ce454a105e00a5b0c19a0ca4c44a22cc51a42c225a60001b620000fe60201b60201c565b336000806101000a81548173ffffffffffffffffffffffffffffffffffffffff021916908373ffffffffffffffffffffffffffffffffffffffff16021790555062000101565b50565b61284380620001116000396000f3fe6080604052600436106100915760003560e01c8063a71f595b11610059578063a71f595b1461019b578063b384abef146101d8578063b69ef8a8146101f4578063d2111a721461021f578063f45714081461023b57610091565b80630fe2a68d146100965780632e4176cf146100d5578063756af45f146101005780637de142421461011c578063a598d03c1461015c575b600080fd5b3480156100a257600080fd5b506100bd60048036038101906100b89190611d4f565b610264565b6040516100cc93929190611d8b565b60405180910390f35b3480156100e157600080fd5b506100ea61033f565b6040516100f79190611e03565b60405180910390f35b61011a60048036038101906101159190611e5c565b610363565b005b34801561012857600080fd5b50610143600480360381019061013e9190611e89565b6105c7565b6040516101539493929190611f62565b60405180910390f35b34801561016857600080fd5b50610183600480360381019061017e9190611d4f565b6106ac565b60405161019293929190611d8b565b60405180910390f35b3480156101a757600080fd5b506101c260048036038101906101bd9190611d4f565b6106d6565b6040516101cf919061206c565b60405180910390f35b6101f260048036038101906101ed9190611e89565b6108fa565b005b34801561020057600080fd5b50610209610e8e565b604051610216919061208e565b60405180910390f35b61023960048036038101906102349190611d4f565b610f1a565b005b34801561024757600080fd5b50610262600480360381019061025d919061238f565b6115c0565b005b60008060006102957f09324d25c0702458df54ad363efa6dc6c3402bd4e7494252db4458d21b99b08960001b611c5f565b6102c17f5173f82ab198d6936f4eee6112ffdcd884b8565e307d47f0c3b61a1d5e527dca60001b611c5f565b6102ed7f1eeb319a0fbc37d54c166334000b1139e318e469e95be5a37f63b4b1d9a4b73c60001b611c5f565b6003600085815260200190815260200160002060000154600360008681526020019081526020016000206001015460036000878152602001908152602001600020600201549250925092509193909250565b60008054906101000a900473ffffffffffffffffffffffffffffffffffffffff1681565b61038f7f1b032d1fa40b9dc5652b70c14b0b2a235ae3ff926abfa4534b2dd2e7b6ed1cb560001b611c5f565b6103bb7f30d66eaa4ec47667d987e67e05679215e2b0f2fcf6f66cbd00416af8d9035b3e60001b611c5f565b6103e77f059c45000630d1d1d875d9e47269d37f5b3c3c47a0328558befbdf979435167d60001b611c5f565b6104137f980102605c88d5c22721350001a7cfd69ca2128527bca0cb8681e25eae43e9ac60001b611c5f565b60008054906101000a900473ffffffffffffffffffffffffffffffffffffffff1673ffffffffffffffffffffffffffffffffffffffff163373ffffffffffffffffffffffffffffffffffffffff16146104a1576040517f08c379a00000000000000000000000000000000000000000000000000000000081526004016104989061245d565b60405180910390fd5b6104cd7fe72bb15e4dc90eaa73644748c5ecca33299d3a1a07c6e3d0295072b038a0b87d60001b611c5f565b6104f97f0ee98017490a137745e97a224826d53503d2aa5a4ae185338bb91d42e298bf0760001b611c5f565b6105257f84f59de41c11dd88c208c69e7d95aa44eca674fbcc9dc4ef39f7ea4103eed1a360001b611c5f565b6105517fa6e0eb2c1d6b7ae7d2afdf162e95f72b2ab0a6d02e620f6746daec4346d7373f60001b611c5f565b61057d7fece8d3d5dc4bd458957502aa4bf0ca7a676eab414cbf4ad287161c3978cce2be60001b611c5f565b8073ffffffffffffffffffffffffffffffffffffffff166108fc479081150290604051600060405180830381858888f193505050501580156105c3573d6000803e3d6000fd5b5050565b6002602052816000526040600020602052806000526040600020600091509150508060000180546105f7906124ac565b80601f0160208091040260200160405190810160405280929190818152602001828054610623906124ac565b80156106705780601f1061064557610100808354040283529160200191610670565b820191906000526020600020905b81548152906001019060200180831161065357829003601f168201915b5050505050908060010160009054906101000a900473ffffffffffffffffffffffffffffffffffffffff16908060020154908060030154905084565b60036020528060005260406000206000915090508060000154908060010154908060020154905083565b60606107047fb05c3d710edd794f3b2d571568bbd77ec8299b6b078389e678aca1954aa4dc3660001b611c5f565b6107307f749b00ade22fd9c4c1d70e682fe7dc76645f18e8e59134f43cd0101137326cdd60001b611c5f565b61075c7f172301567539c1468d394d861546461a60e9f17bcaaef7e8e14428eb94989cbc60001b611c5f565b606061078a7f2bbee642fd2f6696017c0dab0b1adc9a98c67c61a3ca0be836fe8b60406067ee60001b611c5f565b6107b67fb92a29300b3335cf7cdb15a8714afcb2281b2349c4858261c27d0f466283b2c960001b611c5f565b6000600190505b60036000858152602001908152602001600020600101548111610898576108067f84aed84e307d9d258fc4517769dfdcb67a4fc6e5c1660a1b8a3ad5d35e04b83660001b611c5f565b6108327f1d80d8e50a88c9db74b5fc5c54338805375e48e3885014d46e3f9235656f29f060001b611c5f565b6002600085815260200190815260200160002060008281526020019081526020016000206003015482600183610868919061250d565b8151811061087957610878612541565b5b602002602001018181525050808061089090612570565b9150506107bd565b506108c57fa3ce0d37574f27fd27bac77614d3b55ad543f4d9c50804275baea218ae6388e960001b611c5f565b6108f17ffd91d64e134e143e69e6f3af46e341085f7c66d6950337e0ff60221460f0d0fe60001b611c5f565b80915050919050565b6109267f392d990d0d106b21ff3a5039fb756a181610aee8271da92f3e75c7c8155b014860001b611c5f565b6109527f4c9e9ed3c21b3cfe3130a3421664f0c48d2ee42f2ed95b49f883c9c938d340e160001b611c5f565b61097e7fed64f7e58eb1a890eccbfc8bd295a74e8acd0e2d9c14e38ed2054b85cf89264460001b611c5f565b6109aa7f5bd5f66216f28fbf215a35406c2647d0ec1642edbe8ea4f72f87cfbc02d7854860001b611c5f565b60056000600854815260200190815260200160002054421115610a02576040517f08c379a00000000000000000000000000000000000000000000000000000000081526004016109f990612605565b60405180910390fd5b610a2e7f7b4035775da783a8d4b2ed56ef1d38060f1924c996a6966cfa0a4e15e0ca4c3560001b611c5f565b610a5a7f45e6ff5b66bbd5c36d956f0f5fa1a5ab8adfeecb20eb8cce6dc6dda3211a530060001b611c5f565b610a867f40b6727578c0aae6237ae98b5bd2a8615470ded49f00b06ecfa44a088e65eea160001b611c5f565b610ab27ff158c3399531a7cbd4d61cb4e237c875907afbcfee5420ce079f6dd7982e7fca60001b611c5f565b610ade7f1064b3166272dc3c73dbd3ea5e7369e25ff8adff810dfa25bf42a344e719e56d60001b611c5f565b6000600160003373ffffffffffffffffffffffffffffffffffffffff1673ffffffffffffffffffffffffffffffffffffffff1681526020019081526020016000209050610b4d7f2f048c8a0d0ad9ab1c105524a431588234054f9251b467565124d356d23db20160001b611c5f565b610b797f3af3afdd8379810b46fc47d7fd3b04d716d750b8ee8b64ee136540273025408760001b611c5f565b610ba57f73c23c410d2f7b95313afd1e027163d188e44229ceafee266b0f18ef1dca8df860001b611c5f565b80600001600084815260200190815260200160002060009054906101000a900460ff1615610c08576040517f08c379a0000000000000000000000000000000000000000000000000000000008152600401610bff90612671565b60405180910390fd5b610c347f91edf314384281711a287396360bd311a5d505c71b9ac6a61d3c89365d86a29b60001b611c5f565b610c607f356d087e8dc08e4b50e81ea86bbaad2530cea651d1dbc7561823464d995728b060001b611c5f565b610c8c7fc174475cafd121ac6be7f641dfcbc8330653d46fcc8bd15820d9ddc428c085a060001b611c5f565b610cb87ff18826b32afe832f1cc5c0c809ce8fbb766d5d4e21c9336b9a59f77999ea845a60001b611c5f565b6006543414610cfc576040517f08c379a0000000000000000000000000000000000000000000000000000000008152600401610cf3906126dd565b60405180910390fd5b610d287f709730be351f07c4d0e1219a5ffc2553a237763779bc4a61c8c45cc9cbceedd860001b611c5f565b610d547f65dfec98563092dfa21e761f9f7a212f2d342a553112145d444c19514f12670860001b611c5f565b610d807f4101c4edf42ea56f0bf3d08d12de7e7378e3b79c777784fd5a9a367328b6a88460001b611c5f565b600181600001600085815260200190815260200160002060006101000a81548160ff021916908315150217905550610dda7f8c2dcac441e987ea464fd08cd0492b9fad6b52f21460abcb7c606a7e30f1c9ae60001b611c5f565b610e067fd8eb6c155a92de87392d84cb6f6ea60571bf53acd73e081bbcbbbf4036134e2d60001b611c5f565b8181600101600085815260200190815260200160002081905550610e4c7fd937a2a512ab27e14d3669c961ccba311d599d59c17815c0f382ef490018671f60001b611c5f565b6002600084815260200190815260200160002060008381526020019081526020016000206003016000815480929190610e8490612570565b9190505550505050565b6000610ebc7f3255d2b380ad599bc4f2569c50b9d7339c86b6b4a26b079c60fcae2581ce6d9260001b611c5f565b610ee87f9f83a05b2aa01d14259b9bf487b3aa9f68489126f4be31a618ab6cdf99f911ab60001b611c5f565b610f147f3a63979ee34bc07943dd40173af6343936fb8b32f81ae8f29d47c7597a93fb9160001b611c5f565b47905090565b610f467f1b032d1fa40b9dc5652b70c14b0b2a235ae3ff926abfa4534b2dd2e7b6ed1cb560001b611c5f565b610f727f30d66eaa4ec47667d987e67e05679215e2b0f2fcf6f66cbd00416af8d9035b3e60001b611c5f565b610f9e7f059c45000630d1d1d875d9e47269d37f5b3c3c47a0328558befbdf979435167d60001b611c5f565b610fca7f980102605c88d5c22721350001a7cfd69ca2128527bca0cb8681e25eae43e9ac60001b611c5f565b60008054906101000a900473ffffffffffffffffffffffffffffffffffffffff1673ffffffffffffffffffffffffffffffffffffffff163373ffffffffffffffffffffffffffffffffffffffff1614611058576040517f08c379a000000000000000000000000000000000000000000000000000000000815260040161104f9061245d565b60405180910390fd5b6110847fe72bb15e4dc90eaa73644748c5ecca33299d3a1a07c6e3d0295072b038a0b87d60001b611c5f565b6110b07f0ee98017490a137745e97a224826d53503d2aa5a4ae185338bb91d42e298bf0760001b611c5f565b6110dc7fe4c06185fa667f47cafd1c5e8c3df25f77c3b20a5900ddc8cfe54e9dc3135bac60001b611c5f565b6111087fa0d79d5c7620dff00f63bf28b7895e30793bdeb437bdc42da952e96a5db27e4060001b611c5f565b6111347f784e0f92841b460e9b1b9401c474fc06391dd25a4e721bb2a4bfe9ccd35ad43360001b611c5f565b60006002600083815260200190815260200160002060006001815260200190815260200160002060030154905061118d7fe4264f0d97c0f34cfc229aea5a90e99cf47169b911f5e65f7d83b139276e07cc60001b611c5f565b6111b97fbe74b71a821583978f7640df49d05209543567e3ece75a4797c0c0a88b140d8d60001b611c5f565b6000600260008481526020019081526020016000206000600181526020019081526020016000206002015490506112127f330aebd51bdb879842a9d7fc6632f1167d94b73303c2eeaac118c83e88c56e3b60001b611c5f565b61123e7f0bc7dd252d2d8f822ea555dbf22124ce92f0ef3364e193c01dd41f55fd8033d660001b611c5f565b6000600290505b6003600085815260200190815260200160002060010154811161145e5761128e7f64caaee99125f870b281037e2eb740bb192b785540af8b3a2786f92a2e15b40b60001b611c5f565b6112ba7f97f50010844ec10dbb98685a166d4b1c9f98a2be6de578a51e7230bc57c3134c60001b611c5f565b6002600085815260200190815260200160002060008281526020019081526020016000206003015483101561141e576113157fd5f0dd0c14a3c305b9a454530f5c7ef53d34f1b04ceaae83e6e09719bc4609af60001b611c5f565b6113417f8398f85e7f8bc21c08a4c21e81e66bf240d5ea96f5df2702035d20116a94898d60001b611c5f565b61136d7fe44087c5d43164e2c296fc25767330090a31fc6a468f3257ae490fd3bb555d2a60001b611c5f565b6002600085815260200190815260200160002060008281526020019081526020016000206003015492506113c37f7d7271151bb3e0b0303cb1ceda9d41a3339af07bcb738208fc7df2447b5eadd560001b611c5f565b6113ef7ffc14baee2894b8dc72bd614e49f3c4258976aca65fac14b6d4a71ffd0d3a19ee60001b611c5f565b60026000858152602001908152602001600020600082815260200190815260200160002060020154915061144b565b61144a7ffead74723aa0ada0cd5d8ca6d0c28ecdd7f985f373456a698ca2c1f741e01ee760001b611c5f565b5b808061145690612570565b915050611245565b5061148b7f1b49aeb062ac44cf1b7ed531811ce7f6de6814facf00c83862acd807dbafe3ff60001b611c5f565b6114b77f304d8ecbbf9cc22d98c7532a10fc521c958561312357e33bda6c207cebd90b7960001b611c5f565b600060026000858152602001908152602001600020600083815260200190815260200160002060010160009054906101000a900473ffffffffffffffffffffffffffffffffffffffff16905061152f7f9329107a6a37c56c59e8c60f08766f243454a3ef0b1567b67246661d345a898a60001b611c5f565b61155b7fdd9fa5bb146d4be0d44edbcafde88f0c83a00c37ba00d21799ae55070adb429960001b611c5f565b8073ffffffffffffffffffffffffffffffffffffffff166108fc600a60094761158491906126fd565b61158e9190612786565b9081150290604051600060405180830381858888f193505050501580156115b9573d6000803e3d6000fd5b5050505050565b6115ec7f1b032d1fa40b9dc5652b70c14b0b2a235ae3ff926abfa4534b2dd2e7b6ed1cb560001b611c5f565b6116187f30d66eaa4ec47667d987e67e05679215e2b0f2fcf6f66cbd00416af8d9035b3e60001b611c5f565b6116447f059c45000630d1d1d875d9e47269d37f5b3c3c47a0328558befbdf979435167d60001b611c5f565b6116707f980102605c88d5c22721350001a7cfd69ca2128527bca0cb8681e25eae43e9ac60001b611c5f565b60008054906101000a900473ffffffffffffffffffffffffffffffffffffffff1673ffffffffffffffffffffffffffffffffffffffff163373ffffffffffffffffffffffffffffffffffffffff16146116fe576040517f08c379a00000000000000000000000000000000000000000000000000000000081526004016116f59061245d565b60405180910390fd5b61172a7fe72bb15e4dc90eaa73644748c5ecca33299d3a1a07c6e3d0295072b038a0b87d60001b611c5f565b6117567f0ee98017490a137745e97a224826d53503d2aa5a4ae185338bb91d42e298bf0760001b611c5f565b6117827fa5714f1d9331599fe21049faab70cebd2c5d93e2d1ba1c25a52f5be60fb7187560001b611c5f565b6117ae7fd78a78bfe90f7bfeb09a57d36ad38a07cde9073c23c297fc630f853edf42e09c60001b611c5f565b600860008154809291906117c190612570565b91905055506117f27f0bf995ee4ea69db82e4244e814c11bea2ea94b739173433603687339e6be12cf60001b611c5f565b61181e7f8c066e82b82bb7b508158f85f270e574fa543137357496ae10db6a49a95e560760001b611c5f565b60038060006008548152602001908152602001600020600101819055506118677f8cae26da538fa2fbe657ae60f6d7967a37d2c15abe4eb20142956a12ab4c0aee60001b611c5f565b6118937f7c72d32806ef5d5a8a5be5d6140e5f8bd525dc1284cf820206949bc24f674c4f60001b611c5f565b600854600360006008548152602001908152602001600020600001819055506118de7f71cd7a68bbaaaa7ca916b98a72dbf171598e9fd7e02aa6a575533ac901ab86d460001b611c5f565b61190a7fd6132af9644f15d7aefa5befe9daa1367a68a2bdfb3b07fa8327fb57660cc5e760001b611c5f565b60005b60036000600854815260200190815260200160002060010154811015611b7a576119597f359ab59e0feb09f62b2466c73754c6c1f244edc48c143329b759bc29c5cfcd1960001b611c5f565b6119857fc230ecdf3f6b72c04dc019a2ea6e5b85a4514328f6aa327b0830f24a555c5b6960001b611c5f565b82816003811061199857611997612541565b5b602002015160026000600854815260200190815260200160002060006001846119c191906127b7565b815260200190815260200160002060000190805190602001906119e5929190611c62565b50611a127fee4a64b5e2efca9803a11c2811b78356dd11d01e0770cbeb1eb4f8a3fe77856960001b611c5f565b611a3e7fdad4192229c581bb9d3fb5be9505de4483340993959f06e6250e09bfee9543f560001b611c5f565b818160038110611a5157611a50612541565b5b60200201516002600060085481526020019081526020016000206000600184611a7a91906127b7565b815260200190815260200160002060010160006101000a81548173ffffffffffffffffffffffffffffffffffffffff021916908373ffffffffffffffffffffffffffffffffffffffff160217905550611af57fb8210183c0e8922a5ad24a16188fbbc1fc38b3843e35cd3ade97a7c8da9a286460001b611c5f565b611b217f9533d038370ba8966a369baedf3ad756407ea63b6a26d76a4b210b0f3de79f1f60001b611c5f565b600181611b2e91906127b7565b6002600060085481526020019081526020016000206000600184611b5291906127b7565b8152602001908152602001600020600201819055508080611b7290612570565b91505061190d565b50611ba77fefba2a44c779564ae0e2e8ec6582bc0d48442eb91c522630b68cde760053ec8f60001b611c5f565b611bd37ff922a97c71917b7a7cf90726c0774acb3f743d266ab992eb98ec52dacf20fe6e60001b611c5f565b42600481905550611c067f56b287a2909c7ea65457305962a71888a7f2f00684fa5006035a4390ab1f108660001b611c5f565b611c327f0110ea78ce626a5a3c1b9ccfd025e6b228e0156d53f17e9bf0e2235a996351fd60001b611c5f565b600754600454611c4291906127b7565b600560006008548152602001908152602001600020819055505050565b50565b828054611c6e906124ac565b90600052602060002090601f016020900481019282611c905760008555611cd7565b82601f10611ca957805160ff1916838001178555611cd7565b82800160010185558215611cd7579182015b82811115611cd6578251825591602001919060010190611cbb565b5b509050611ce49190611ce8565b5090565b5b80821115611d01576000816000905550600101611ce9565b5090565b6000604051905090565b600080fd5b600080fd5b6000819050919050565b611d2c81611d19565b8114611d3757600080fd5b50565b600081359050611d4981611d23565b92915050565b600060208284031215611d6557611d64611d0f565b5b6000611d7384828501611d3a565b91505092915050565b611d8581611d19565b82525050565b6000606082019050611da06000830186611d7c565b611dad6020830185611d7c565b611dba6040830184611d7c565b949350505050565b600073ffffffffffffffffffffffffffffffffffffffff82169050919050565b6000611ded82611dc2565b9050919050565b611dfd81611de2565b82525050565b6000602082019050611e186000830184611df4565b92915050565b6000611e2982611dc2565b9050919050565b611e3981611e1e565b8114611e4457600080fd5b50565b600081359050611e5681611e30565b92915050565b600060208284031215611e7257611e71611d0f565b5b6000611e8084828501611e47565b91505092915050565b60008060408385031215611ea057611e9f611d0f565b5b6000611eae85828601611d3a565b9250506020611ebf85828601611d3a565b9150509250929050565b600081519050919050565b600082825260208201905092915050565b60005b83811015611f03578082015181840152602081019050611ee8565b83811115611f12576000848401525b50505050565b6000601f19601f8301169050919050565b6000611f3482611ec9565b611f3e8185611ed4565b9350611f4e818560208601611ee5565b611f5781611f18565b840191505092915050565b60006080820190508181036000830152611f7c8187611f29565b9050611f8b6020830186611df4565b611f986040830185611d7c565b611fa56060830184611d7c565b95945050505050565b600081519050919050565b600082825260208201905092915050565b6000819050602082019050919050565b611fe381611d19565b82525050565b6000611ff58383611fda565b60208301905092915050565b6000602082019050919050565b600061201982611fae565b6120238185611fb9565b935061202e83611fca565b8060005b8381101561205f5781516120468882611fe9565b975061205183612001565b925050600181019050612032565b5085935050505092915050565b60006020820190508181036000830152612086818461200e565b905092915050565b60006020820190506120a36000830184611d7c565b92915050565b600080fd5b7f4e487b7100000000000000000000000000000000000000000000000000000000600052604160045260246000fd5b6120e682611f18565b810181811067ffffffffffffffff82111715612105576121046120ae565b5b80604052505050565b6000612118611d05565b905061212482826120dd565b919050565b600067ffffffffffffffff821115612144576121436120ae565b5b602082029050919050565b600080fd5b600080fd5b600067ffffffffffffffff821115612174576121736120ae565b5b61217d82611f18565b9050602081019050919050565b82818337600083830152505050565b60006121ac6121a784612159565b61210e565b9050828152602081018484840111156121c8576121c7612154565b5b6121d384828561218a565b509392505050565b600082601f8301126121f0576121ef6120a9565b5b8135612200848260208601612199565b91505092915050565b600061221c61221784612129565b61210e565b905080602084028301858111156122365761223561214f565b5b835b8181101561227d57803567ffffffffffffffff81111561225b5761225a6120a9565b5b80860161226889826121db565b85526020850194505050602081019050612238565b5050509392505050565b600082601f83011261229c5761229b6120a9565b5b60036122a9848285612209565b91505092915050565b600067ffffffffffffffff8211156122cd576122cc6120ae565b5b602082029050919050565b6122e181611de2565b81146122ec57600080fd5b50565b6000813590506122fe816122d8565b92915050565b6000612317612312846122b2565b61210e565b905080602084028301858111156123315761233061214f565b5b835b8181101561235a578061234688826122ef565b845260208401935050602081019050612333565b5050509392505050565b600082601f830112612379576123786120a9565b5b6003612386848285612304565b91505092915050565b600080608083850312156123a6576123a5611d0f565b5b600083013567ffffffffffffffff8111156123c4576123c3611d14565b5b6123d085828601612287565b92505060206123e185828601612364565b9150509250929050565b7f4f6e6c79206368616972706572736f6e2063616e20737461727420616e64206560008201527f6e642074686520766f74696e6700000000000000000000000000000000000000602082015250565b6000612447602d83611ed4565b9150612452826123eb565b604082019050919050565b600060208201905081810360008301526124768161243a565b9050919050565b7f4e487b7100000000000000000000000000000000000000000000000000000000600052602260045260246000fd5b600060028204905060018216806124c457607f821691505b602082108114156124d8576124d761247d565b5b50919050565b7f4e487b7100000000000000000000000000000000000000000000000000000000600052601160045260246000fd5b600061251882611d19565b915061252383611d19565b925082821015612536576125356124de565b5b828203905092915050565b7f4e487b7100000000000000000000000000000000000000000000000000000000600052603260045260246000fd5b600061257b82611d19565b91507fffffffffffffffffffffffffffffffffffffffffffffffffffffffffffffffff8214156125ae576125ad6124de565b5b600182019050919050565b7f566f74696e6720697320636c6f73656400000000000000000000000000000000600082015250565b60006125ef601083611ed4565b91506125fa826125b9565b602082019050919050565b6000602082019050818103600083015261261e816125e2565b9050919050565b7f416c726561647920766f7465642e000000000000000000000000000000000000600082015250565b600061265b600e83611ed4565b915061266682612625565b602082019050919050565b6000602082019050818103600083015261268a8161264e565b9050919050565b7f496e76616c696420416d6f756e74000000000000000000000000000000000000600082015250565b60006126c7600e83611ed4565b91506126d282612691565b602082019050919050565b600060208201905081810360008301526126f6816126ba565b9050919050565b600061270882611d19565b915061271383611d19565b9250817fffffffffffffffffffffffffffffffffffffffffffffffffffffffffffffffff048311821515161561274c5761274b6124de565b5b828202905092915050565b7f4e487b7100000000000000000000000000000000000000000000000000000000600052601260045260246000fd5b600061279182611d19565b915061279c83611d19565b9250826127ac576127ab612757565b5b828204905092915050565b60006127c282611d19565b91506127cd83611d19565b9250827fffffffffffffffffffffffffffffffffffffffffffffffffffffffffffffffff03821115612802576128016124de565b5b82820190509291505056fea2646970667358221220ce54468742100ff3f656b92b377ffacf53f289924d5195c90f52f4d16777f2d864736f6c63430008090033",
          "opcodes": "PUSH1 0x80 PUSH1 0x40 MSTORE PUSH1 0x64 PUSH1 0x6 SSTORE PUSH1 0x3C PUSH1 0x7 SSTORE CALLVALUE DUP1 ISZERO PUSH3 0x1B JUMPI PUSH1 0x0 DUP1 REVERT JUMPDEST POP PUSH3 0x50 PUSH32 0x3887A080BA8FE554BC3E9CA54F221E2FCE996F4B4CA96B476A186D5E312672E5 PUSH1 0x0 SHL PUSH3 0xFE PUSH1 0x20 SHL PUSH1 0x20 SHR JUMP JUMPDEST PUSH3 0x84 PUSH32 0xFD3F8229AB0B6D315DBBD1B9250F2C1B0DD715ED7BEE8D061F2935AFF18D4885 PUSH1 0x0 SHL PUSH3 0xFE PUSH1 0x20 SHL PUSH1 0x20 SHR JUMP JUMPDEST PUSH3 0xB8 PUSH32 0xC446BFBF5875C3C5EFFFA8CE454A105E00A5B0C19A0CA4C44A22CC51A42C225A PUSH1 0x0 SHL PUSH3 0xFE PUSH1 0x20 SHL PUSH1 0x20 SHR JUMP JUMPDEST CALLER PUSH1 0x0 DUP1 PUSH2 0x100 EXP DUP2 SLOAD DUP2 PUSH20 0xFFFFFFFFFFFFFFFFFFFFFFFFFFFFFFFFFFFFFFFF MUL NOT AND SWAP1 DUP4 PUSH20 0xFFFFFFFFFFFFFFFFFFFFFFFFFFFFFFFFFFFFFFFF AND MUL OR SWAP1 SSTORE POP PUSH3 0x101 JUMP JUMPDEST POP JUMP JUMPDEST PUSH2 0x2843 DUP1 PUSH3 0x111 PUSH1 0x0 CODECOPY PUSH1 0x0 RETURN INVALID PUSH1 0x80 PUSH1 0x40 MSTORE PUSH1 0x4 CALLDATASIZE LT PUSH2 0x91 JUMPI PUSH1 0x0 CALLDATALOAD PUSH1 0xE0 SHR DUP1 PUSH4 0xA71F595B GT PUSH2 0x59 JUMPI DUP1 PUSH4 0xA71F595B EQ PUSH2 0x19B JUMPI DUP1 PUSH4 0xB384ABEF EQ PUSH2 0x1D8 JUMPI DUP1 PUSH4 0xB69EF8A8 EQ PUSH2 0x1F4 JUMPI DUP1 PUSH4 0xD2111A72 EQ PUSH2 0x21F JUMPI DUP1 PUSH4 0xF4571408 EQ PUSH2 0x23B JUMPI PUSH2 0x91 JUMP JUMPDEST DUP1 PUSH4 0xFE2A68D EQ PUSH2 0x96 JUMPI DUP1 PUSH4 0x2E4176CF EQ PUSH2 0xD5 JUMPI DUP1 PUSH4 0x756AF45F EQ PUSH2 0x100 JUMPI DUP1 PUSH4 0x7DE14242 EQ PUSH2 0x11C JUMPI DUP1 PUSH4 0xA598D03C EQ PUSH2 0x15C JUMPI JUMPDEST PUSH1 0x0 DUP1 REVERT JUMPDEST CALLVALUE DUP1 ISZERO PUSH2 0xA2 JUMPI PUSH1 0x0 DUP1 REVERT JUMPDEST POP PUSH2 0xBD PUSH1 0x4 DUP1 CALLDATASIZE SUB DUP2 ADD SWAP1 PUSH2 0xB8 SWAP2 SWAP1 PUSH2 0x1D4F JUMP JUMPDEST PUSH2 0x264 JUMP JUMPDEST PUSH1 0x40 MLOAD PUSH2 0xCC SWAP4 SWAP3 SWAP2 SWAP1 PUSH2 0x1D8B JUMP JUMPDEST PUSH1 0x40 MLOAD DUP1 SWAP2 SUB SWAP1 RETURN JUMPDEST CALLVALUE DUP1 ISZERO PUSH2 0xE1 JUMPI PUSH1 0x0 DUP1 REVERT JUMPDEST POP PUSH2 0xEA PUSH2 0x33F JUMP JUMPDEST PUSH1 0x40 MLOAD PUSH2 0xF7 SWAP2 SWAP1 PUSH2 0x1E03 JUMP JUMPDEST PUSH1 0x40 MLOAD DUP1 SWAP2 SUB SWAP1 RETURN JUMPDEST PUSH2 0x11A PUSH1 0x4 DUP1 CALLDATASIZE SUB DUP2 ADD SWAP1 PUSH2 0x115 SWAP2 SWAP1 PUSH2 0x1E5C JUMP JUMPDEST PUSH2 0x363 JUMP JUMPDEST STOP JUMPDEST CALLVALUE DUP1 ISZERO PUSH2 0x128 JUMPI PUSH1 0x0 DUP1 REVERT JUMPDEST POP PUSH2 0x143 PUSH1 0x4 DUP1 CALLDATASIZE SUB DUP2 ADD SWAP1 PUSH2 0x13E SWAP2 SWAP1 PUSH2 0x1E89 JUMP JUMPDEST PUSH2 0x5C7 JUMP JUMPDEST PUSH1 0x40 MLOAD PUSH2 0x153 SWAP5 SWAP4 SWAP3 SWAP2 SWAP1 PUSH2 0x1F62 JUMP JUMPDEST PUSH1 0x40 MLOAD DUP1 SWAP2 SUB SWAP1 RETURN JUMPDEST CALLVALUE DUP1 ISZERO PUSH2 0x168 JUMPI PUSH1 0x0 DUP1 REVERT JUMPDEST POP PUSH2 0x183 PUSH1 0x4 DUP1 CALLDATASIZE SUB DUP2 ADD SWAP1 PUSH2 0x17E SWAP2 SWAP1 PUSH2 0x1D4F JUMP JUMPDEST PUSH2 0x6AC JUMP JUMPDEST PUSH1 0x40 MLOAD PUSH2 0x192 SWAP4 SWAP3 SWAP2 SWAP1 PUSH2 0x1D8B JUMP JUMPDEST PUSH1 0x40 MLOAD DUP1 SWAP2 SUB SWAP1 RETURN JUMPDEST CALLVALUE DUP1 ISZERO PUSH2 0x1A7 JUMPI PUSH1 0x0 DUP1 REVERT JUMPDEST POP PUSH2 0x1C2 PUSH1 0x4 DUP1 CALLDATASIZE SUB DUP2 ADD SWAP1 PUSH2 0x1BD SWAP2 SWAP1 PUSH2 0x1D4F JUMP JUMPDEST PUSH2 0x6D6 JUMP JUMPDEST PUSH1 0x40 MLOAD PUSH2 0x1CF SWAP2 SWAP1 PUSH2 0x206C JUMP JUMPDEST PUSH1 0x40 MLOAD DUP1 SWAP2 SUB SWAP1 RETURN JUMPDEST PUSH2 0x1F2 PUSH1 0x4 DUP1 CALLDATASIZE SUB DUP2 ADD SWAP1 PUSH2 0x1ED SWAP2 SWAP1 PUSH2 0x1E89 JUMP JUMPDEST PUSH2 0x8FA JUMP JUMPDEST STOP JUMPDEST CALLVALUE DUP1 ISZERO PUSH2 0x200 JUMPI PUSH1 0x0 DUP1 REVERT JUMPDEST POP PUSH2 0x209 PUSH2 0xE8E JUMP JUMPDEST PUSH1 0x40 MLOAD PUSH2 0x216 SWAP2 SWAP1 PUSH2 0x208E JUMP JUMPDEST PUSH1 0x40 MLOAD DUP1 SWAP2 SUB SWAP1 RETURN JUMPDEST PUSH2 0x239 PUSH1 0x4 DUP1 CALLDATASIZE SUB DUP2 ADD SWAP1 PUSH2 0x234 SWAP2 SWAP1 PUSH2 0x1D4F JUMP JUMPDEST PUSH2 0xF1A JUMP JUMPDEST STOP JUMPDEST CALLVALUE DUP1 ISZERO PUSH2 0x247 JUMPI PUSH1 0x0 DUP1 REVERT JUMPDEST POP PUSH2 0x262 PUSH1 0x4 DUP1 CALLDATASIZE SUB DUP2 ADD SWAP1 PUSH2 0x25D SWAP2 SWAP1 PUSH2 0x238F JUMP JUMPDEST PUSH2 0x15C0 JUMP JUMPDEST STOP JUMPDEST PUSH1 0x0 DUP1 PUSH1 0x0 PUSH2 0x295 PUSH32 0x9324D25C0702458DF54AD363EFA6DC6C3402BD4E7494252DB4458D21B99B089 PUSH1 0x0 SHL PUSH2 0x1C5F JUMP JUMPDEST PUSH2 0x2C1 PUSH32 0x5173F82AB198D6936F4EEE6112FFDCD884B8565E307D47F0C3B61A1D5E527DCA PUSH1 0x0 SHL PUSH2 0x1C5F JUMP JUMPDEST PUSH2 0x2ED PUSH32 0x1EEB319A0FBC37D54C166334000B1139E318E469E95BE5A37F63B4B1D9A4B73C PUSH1 0x0 SHL PUSH2 0x1C5F JUMP JUMPDEST PUSH1 0x3 PUSH1 0x0 DUP6 DUP2 MSTORE PUSH1 0x20 ADD SWAP1 DUP2 MSTORE PUSH1 0x20 ADD PUSH1 0x0 KECCAK256 PUSH1 0x0 ADD SLOAD PUSH1 0x3 PUSH1 0x0 DUP7 DUP2 MSTORE PUSH1 0x20 ADD SWAP1 DUP2 MSTORE PUSH1 0x20 ADD PUSH1 0x0 KECCAK256 PUSH1 0x1 ADD SLOAD PUSH1 0x3 PUSH1 0x0 DUP8 DUP2 MSTORE PUSH1 0x20 ADD SWAP1 DUP2 MSTORE PUSH1 0x20 ADD PUSH1 0x0 KECCAK256 PUSH1 0x2 ADD SLOAD SWAP3 POP SWAP3 POP SWAP3 POP SWAP2 SWAP4 SWAP1 SWAP3 POP JUMP JUMPDEST PUSH1 0x0 DUP1 SLOAD SWAP1 PUSH2 0x100 EXP SWAP1 DIV PUSH20 0xFFFFFFFFFFFFFFFFFFFFFFFFFFFFFFFFFFFFFFFF AND DUP2 JUMP JUMPDEST PUSH2 0x38F PUSH32 0x1B032D1FA40B9DC5652B70C14B0B2A235AE3FF926ABFA4534B2DD2E7B6ED1CB5 PUSH1 0x0 SHL PUSH2 0x1C5F JUMP JUMPDEST PUSH2 0x3BB PUSH32 0x30D66EAA4EC47667D987E67E05679215E2B0F2FCF6F66CBD00416AF8D9035B3E PUSH1 0x0 SHL PUSH2 0x1C5F JUMP JUMPDEST PUSH2 0x3E7 PUSH32 0x59C45000630D1D1D875D9E47269D37F5B3C3C47A0328558BEFBDF979435167D PUSH1 0x0 SHL PUSH2 0x1C5F JUMP JUMPDEST PUSH2 0x413 PUSH32 0x980102605C88D5C22721350001A7CFD69CA2128527BCA0CB8681E25EAE43E9AC PUSH1 0x0 SHL PUSH2 0x1C5F JUMP JUMPDEST PUSH1 0x0 DUP1 SLOAD SWAP1 PUSH2 0x100 EXP SWAP1 DIV PUSH20 0xFFFFFFFFFFFFFFFFFFFFFFFFFFFFFFFFFFFFFFFF AND PUSH20 0xFFFFFFFFFFFFFFFFFFFFFFFFFFFFFFFFFFFFFFFF AND CALLER PUSH20 0xFFFFFFFFFFFFFFFFFFFFFFFFFFFFFFFFFFFFFFFF AND EQ PUSH2 0x4A1 JUMPI PUSH1 0x40 MLOAD PUSH32 0x8C379A000000000000000000000000000000000000000000000000000000000 DUP2 MSTORE PUSH1 0x4 ADD PUSH2 0x498 SWAP1 PUSH2 0x245D JUMP JUMPDEST PUSH1 0x40 MLOAD DUP1 SWAP2 SUB SWAP1 REVERT JUMPDEST PUSH2 0x4CD PUSH32 0xE72BB15E4DC90EAA73644748C5ECCA33299D3A1A07C6E3D0295072B038A0B87D PUSH1 0x0 SHL PUSH2 0x1C5F JUMP JUMPDEST PUSH2 0x4F9 PUSH32 0xEE98017490A137745E97A224826D53503D2AA5A4AE185338BB91D42E298BF07 PUSH1 0x0 SHL PUSH2 0x1C5F JUMP JUMPDEST PUSH2 0x525 PUSH32 0x84F59DE41C11DD88C208C69E7D95AA44ECA674FBCC9DC4EF39F7EA4103EED1A3 PUSH1 0x0 SHL PUSH2 0x1C5F JUMP JUMPDEST PUSH2 0x551 PUSH32 0xA6E0EB2C1D6B7AE7D2AFDF162E95F72B2AB0A6D02E620F6746DAEC4346D7373F PUSH1 0x0 SHL PUSH2 0x1C5F JUMP JUMPDEST PUSH2 0x57D PUSH32 0xECE8D3D5DC4BD458957502AA4BF0CA7A676EAB414CBF4AD287161C3978CCE2BE PUSH1 0x0 SHL PUSH2 0x1C5F JUMP JUMPDEST DUP1 PUSH20 0xFFFFFFFFFFFFFFFFFFFFFFFFFFFFFFFFFFFFFFFF AND PUSH2 0x8FC SELFBALANCE SWAP1 DUP2 ISZERO MUL SWAP1 PUSH1 0x40 MLOAD PUSH1 0x0 PUSH1 0x40 MLOAD DUP1 DUP4 SUB DUP2 DUP6 DUP9 DUP9 CALL SWAP4 POP POP POP POP ISZERO DUP1 ISZERO PUSH2 0x5C3 JUMPI RETURNDATASIZE PUSH1 0x0 DUP1 RETURNDATACOPY RETURNDATASIZE PUSH1 0x0 REVERT JUMPDEST POP POP JUMP JUMPDEST PUSH1 0x2 PUSH1 0x20 MSTORE DUP2 PUSH1 0x0 MSTORE PUSH1 0x40 PUSH1 0x0 KECCAK256 PUSH1 0x20 MSTORE DUP1 PUSH1 0x0 MSTORE PUSH1 0x40 PUSH1 0x0 KECCAK256 PUSH1 0x0 SWAP2 POP SWAP2 POP POP DUP1 PUSH1 0x0 ADD DUP1 SLOAD PUSH2 0x5F7 SWAP1 PUSH2 0x24AC JUMP JUMPDEST DUP1 PUSH1 0x1F ADD PUSH1 0x20 DUP1 SWAP2 DIV MUL PUSH1 0x20 ADD PUSH1 0x40 MLOAD SWAP1 DUP2 ADD PUSH1 0x40 MSTORE DUP1 SWAP3 SWAP2 SWAP1 DUP2 DUP2 MSTORE PUSH1 0x20 ADD DUP3 DUP1 SLOAD PUSH2 0x623 SWAP1 PUSH2 0x24AC JUMP JUMPDEST DUP1 ISZERO PUSH2 0x670 JUMPI DUP1 PUSH1 0x1F LT PUSH2 0x645 JUMPI PUSH2 0x100 DUP1 DUP4 SLOAD DIV MUL DUP4 MSTORE SWAP2 PUSH1 0x20 ADD SWAP2 PUSH2 0x670 JUMP JUMPDEST DUP3 ADD SWAP2 SWAP1 PUSH1 0x0 MSTORE PUSH1 0x20 PUSH1 0x0 KECCAK256 SWAP1 JUMPDEST DUP2 SLOAD DUP2 MSTORE SWAP1 PUSH1 0x1 ADD SWAP1 PUSH1 0x20 ADD DUP1 DUP4 GT PUSH2 0x653 JUMPI DUP3 SWAP1 SUB PUSH1 0x1F AND DUP3 ADD SWAP2 JUMPDEST POP POP POP POP POP SWAP1 DUP1 PUSH1 0x1 ADD PUSH1 0x0 SWAP1 SLOAD SWAP1 PUSH2 0x100 EXP SWAP1 DIV PUSH20 0xFFFFFFFFFFFFFFFFFFFFFFFFFFFFFFFFFFFFFFFF AND SWAP1 DUP1 PUSH1 0x2 ADD SLOAD SWAP1 DUP1 PUSH1 0x3 ADD SLOAD SWAP1 POP DUP5 JUMP JUMPDEST PUSH1 0x3 PUSH1 0x20 MSTORE DUP1 PUSH1 0x0 MSTORE PUSH1 0x40 PUSH1 0x0 KECCAK256 PUSH1 0x0 SWAP2 POP SWAP1 POP DUP1 PUSH1 0x0 ADD SLOAD SWAP1 DUP1 PUSH1 0x1 ADD SLOAD SWAP1 DUP1 PUSH1 0x2 ADD SLOAD SWAP1 POP DUP4 JUMP JUMPDEST PUSH1 0x60 PUSH2 0x704 PUSH32 0xB05C3D710EDD794F3B2D571568BBD77EC8299B6B078389E678ACA1954AA4DC36 PUSH1 0x0 SHL PUSH2 0x1C5F JUMP JUMPDEST PUSH2 0x730 PUSH32 0x749B00ADE22FD9C4C1D70E682FE7DC76645F18E8E59134F43CD0101137326CDD PUSH1 0x0 SHL PUSH2 0x1C5F JUMP JUMPDEST PUSH2 0x75C PUSH32 0x172301567539C1468D394D861546461A60E9F17BCAAEF7E8E14428EB94989CBC PUSH1 0x0 SHL PUSH2 0x1C5F JUMP JUMPDEST PUSH1 0x60 PUSH2 0x78A PUSH32 0x2BBEE642FD2F6696017C0DAB0B1ADC9A98C67C61A3CA0BE836FE8B60406067EE PUSH1 0x0 SHL PUSH2 0x1C5F JUMP JUMPDEST PUSH2 0x7B6 PUSH32 0xB92A29300B3335CF7CDB15A8714AFCB2281B2349C4858261C27D0F466283B2C9 PUSH1 0x0 SHL PUSH2 0x1C5F JUMP JUMPDEST PUSH1 0x0 PUSH1 0x1 SWAP1 POP JUMPDEST PUSH1 0x3 PUSH1 0x0 DUP6 DUP2 MSTORE PUSH1 0x20 ADD SWAP1 DUP2 MSTORE PUSH1 0x20 ADD PUSH1 0x0 KECCAK256 PUSH1 0x1 ADD SLOAD DUP2 GT PUSH2 0x898 JUMPI PUSH2 0x806 PUSH32 0x84AED84E307D9D258FC4517769DFDCB67A4FC6E5C1660A1B8A3AD5D35E04B836 PUSH1 0x0 SHL PUSH2 0x1C5F JUMP JUMPDEST PUSH2 0x832 PUSH32 0x1D80D8E50A88C9DB74B5FC5C54338805375E48E3885014D46E3F9235656F29F0 PUSH1 0x0 SHL PUSH2 0x1C5F JUMP JUMPDEST PUSH1 0x2 PUSH1 0x0 DUP6 DUP2 MSTORE PUSH1 0x20 ADD SWAP1 DUP2 MSTORE PUSH1 0x20 ADD PUSH1 0x0 KECCAK256 PUSH1 0x0 DUP3 DUP2 MSTORE PUSH1 0x20 ADD SWAP1 DUP2 MSTORE PUSH1 0x20 ADD PUSH1 0x0 KECCAK256 PUSH1 0x3 ADD SLOAD DUP3 PUSH1 0x1 DUP4 PUSH2 0x868 SWAP2 SWAP1 PUSH2 0x250D JUMP JUMPDEST DUP2 MLOAD DUP2 LT PUSH2 0x879 JUMPI PUSH2 0x878 PUSH2 0x2541 JUMP JUMPDEST JUMPDEST PUSH1 0x20 MUL PUSH1 0x20 ADD ADD DUP2 DUP2 MSTORE POP POP DUP1 DUP1 PUSH2 0x890 SWAP1 PUSH2 0x2570 JUMP JUMPDEST SWAP2 POP POP PUSH2 0x7BD JUMP JUMPDEST POP PUSH2 0x8C5 PUSH32 0xA3CE0D37574F27FD27BAC77614D3B55AD543F4D9C50804275BAEA218AE6388E9 PUSH1 0x0 SHL PUSH2 0x1C5F JUMP JUMPDEST PUSH2 0x8F1 PUSH32 0xFD91D64E134E143E69E6F3AF46E341085F7C66D6950337E0FF60221460F0D0FE PUSH1 0x0 SHL PUSH2 0x1C5F JUMP JUMPDEST DUP1 SWAP2 POP POP SWAP2 SWAP1 POP JUMP JUMPDEST PUSH2 0x926 PUSH32 0x392D990D0D106B21FF3A5039FB756A181610AEE8271DA92F3E75C7C8155B0148 PUSH1 0x0 SHL PUSH2 0x1C5F JUMP JUMPDEST PUSH2 0x952 PUSH32 0x4C9E9ED3C21B3CFE3130A3421664F0C48D2EE42F2ED95B49F883C9C938D340E1 PUSH1 0x0 SHL PUSH2 0x1C5F JUMP JUMPDEST PUSH2 0x97E PUSH32 0xED64F7E58EB1A890ECCBFC8BD295A74E8ACD0E2D9C14E38ED2054B85CF892644 PUSH1 0x0 SHL PUSH2 0x1C5F JUMP JUMPDEST PUSH2 0x9AA PUSH32 0x5BD5F66216F28FBF215A35406C2647D0EC1642EDBE8EA4F72F87CFBC02D78548 PUSH1 0x0 SHL PUSH2 0x1C5F JUMP JUMPDEST PUSH1 0x5 PUSH1 0x0 PUSH1 0x8 SLOAD DUP2 MSTORE PUSH1 0x20 ADD SWAP1 DUP2 MSTORE PUSH1 0x20 ADD PUSH1 0x0 KECCAK256 SLOAD TIMESTAMP GT ISZERO PUSH2 0xA02 JUMPI PUSH1 0x40 MLOAD PUSH32 0x8C379A000000000000000000000000000000000000000000000000000000000 DUP2 MSTORE PUSH1 0x4 ADD PUSH2 0x9F9 SWAP1 PUSH2 0x2605 JUMP JUMPDEST PUSH1 0x40 MLOAD DUP1 SWAP2 SUB SWAP1 REVERT JUMPDEST PUSH2 0xA2E PUSH32 0x7B4035775DA783A8D4B2ED56EF1D38060F1924C996A6966CFA0A4E15E0CA4C35 PUSH1 0x0 SHL PUSH2 0x1C5F JUMP JUMPDEST PUSH2 0xA5A PUSH32 0x45E6FF5B66BBD5C36D956F0F5FA1A5AB8ADFEECB20EB8CCE6DC6DDA3211A5300 PUSH1 0x0 SHL PUSH2 0x1C5F JUMP JUMPDEST PUSH2 0xA86 PUSH32 0x40B6727578C0AAE6237AE98B5BD2A8615470DED49F00B06ECFA44A088E65EEA1 PUSH1 0x0 SHL PUSH2 0x1C5F JUMP JUMPDEST PUSH2 0xAB2 PUSH32 0xF158C3399531A7CBD4D61CB4E237C875907AFBCFEE5420CE079F6DD7982E7FCA PUSH1 0x0 SHL PUSH2 0x1C5F JUMP JUMPDEST PUSH2 0xADE PUSH32 0x1064B3166272DC3C73DBD3EA5E7369E25FF8ADFF810DFA25BF42A344E719E56D PUSH1 0x0 SHL PUSH2 0x1C5F JUMP JUMPDEST PUSH1 0x0 PUSH1 0x1 PUSH1 0x0 CALLER PUSH20 0xFFFFFFFFFFFFFFFFFFFFFFFFFFFFFFFFFFFFFFFF AND PUSH20 0xFFFFFFFFFFFFFFFFFFFFFFFFFFFFFFFFFFFFFFFF AND DUP2 MSTORE PUSH1 0x20 ADD SWAP1 DUP2 MSTORE PUSH1 0x20 ADD PUSH1 0x0 KECCAK256 SWAP1 POP PUSH2 0xB4D PUSH32 0x2F048C8A0D0AD9AB1C105524A431588234054F9251B467565124D356D23DB201 PUSH1 0x0 SHL PUSH2 0x1C5F JUMP JUMPDEST PUSH2 0xB79 PUSH32 0x3AF3AFDD8379810B46FC47D7FD3B04D716D750B8EE8B64EE1365402730254087 PUSH1 0x0 SHL PUSH2 0x1C5F JUMP JUMPDEST PUSH2 0xBA5 PUSH32 0x73C23C410D2F7B95313AFD1E027163D188E44229CEAFEE266B0F18EF1DCA8DF8 PUSH1 0x0 SHL PUSH2 0x1C5F JUMP JUMPDEST DUP1 PUSH1 0x0 ADD PUSH1 0x0 DUP5 DUP2 MSTORE PUSH1 0x20 ADD SWAP1 DUP2 MSTORE PUSH1 0x20 ADD PUSH1 0x0 KECCAK256 PUSH1 0x0 SWAP1 SLOAD SWAP1 PUSH2 0x100 EXP SWAP1 DIV PUSH1 0xFF AND ISZERO PUSH2 0xC08 JUMPI PUSH1 0x40 MLOAD PUSH32 0x8C379A000000000000000000000000000000000000000000000000000000000 DUP2 MSTORE PUSH1 0x4 ADD PUSH2 0xBFF SWAP1 PUSH2 0x2671 JUMP JUMPDEST PUSH1 0x40 MLOAD DUP1 SWAP2 SUB SWAP1 REVERT JUMPDEST PUSH2 0xC34 PUSH32 0x91EDF314384281711A287396360BD311A5D505C71B9AC6A61D3C89365D86A29B PUSH1 0x0 SHL PUSH2 0x1C5F JUMP JUMPDEST PUSH2 0xC60 PUSH32 0x356D087E8DC08E4B50E81EA86BBAAD2530CEA651D1DBC7561823464D995728B0 PUSH1 0x0 SHL PUSH2 0x1C5F JUMP JUMPDEST PUSH2 0xC8C PUSH32 0xC174475CAFD121AC6BE7F641DFCBC8330653D46FCC8BD15820D9DDC428C085A0 PUSH1 0x0 SHL PUSH2 0x1C5F JUMP JUMPDEST PUSH2 0xCB8 PUSH32 0xF18826B32AFE832F1CC5C0C809CE8FBB766D5D4E21C9336B9A59F77999EA845A PUSH1 0x0 SHL PUSH2 0x1C5F JUMP JUMPDEST PUSH1 0x6 SLOAD CALLVALUE EQ PUSH2 0xCFC JUMPI PUSH1 0x40 MLOAD PUSH32 0x8C379A000000000000000000000000000000000000000000000000000000000 DUP2 MSTORE PUSH1 0x4 ADD PUSH2 0xCF3 SWAP1 PUSH2 0x26DD JUMP JUMPDEST PUSH1 0x40 MLOAD DUP1 SWAP2 SUB SWAP1 REVERT JUMPDEST PUSH2 0xD28 PUSH32 0x709730BE351F07C4D0E1219A5FFC2553A237763779BC4A61C8C45CC9CBCEEDD8 PUSH1 0x0 SHL PUSH2 0x1C5F JUMP JUMPDEST PUSH2 0xD54 PUSH32 0x65DFEC98563092DFA21E761F9F7A212F2D342A553112145D444C19514F126708 PUSH1 0x0 SHL PUSH2 0x1C5F JUMP JUMPDEST PUSH2 0xD80 PUSH32 0x4101C4EDF42EA56F0BF3D08D12DE7E7378E3B79C777784FD5A9A367328B6A884 PUSH1 0x0 SHL PUSH2 0x1C5F JUMP JUMPDEST PUSH1 0x1 DUP2 PUSH1 0x0 ADD PUSH1 0x0 DUP6 DUP2 MSTORE PUSH1 0x20 ADD SWAP1 DUP2 MSTORE PUSH1 0x20 ADD PUSH1 0x0 KECCAK256 PUSH1 0x0 PUSH2 0x100 EXP DUP2 SLOAD DUP2 PUSH1 0xFF MUL NOT AND SWAP1 DUP4 ISZERO ISZERO MUL OR SWAP1 SSTORE POP PUSH2 0xDDA PUSH32 0x8C2DCAC441E987EA464FD08CD0492B9FAD6B52F21460ABCB7C606A7E30F1C9AE PUSH1 0x0 SHL PUSH2 0x1C5F JUMP JUMPDEST PUSH2 0xE06 PUSH32 0xD8EB6C155A92DE87392D84CB6F6EA60571BF53ACD73E081BBCBBBF4036134E2D PUSH1 0x0 SHL PUSH2 0x1C5F JUMP JUMPDEST DUP2 DUP2 PUSH1 0x1 ADD PUSH1 0x0 DUP6 DUP2 MSTORE PUSH1 0x20 ADD SWAP1 DUP2 MSTORE PUSH1 0x20 ADD PUSH1 0x0 KECCAK256 DUP2 SWAP1 SSTORE POP PUSH2 0xE4C PUSH32 0xD937A2A512AB27E14D3669C961CCBA311D599D59C17815C0F382EF490018671F PUSH1 0x0 SHL PUSH2 0x1C5F JUMP JUMPDEST PUSH1 0x2 PUSH1 0x0 DUP5 DUP2 MSTORE PUSH1 0x20 ADD SWAP1 DUP2 MSTORE PUSH1 0x20 ADD PUSH1 0x0 KECCAK256 PUSH1 0x0 DUP4 DUP2 MSTORE PUSH1 0x20 ADD SWAP1 DUP2 MSTORE PUSH1 0x20 ADD PUSH1 0x0 KECCAK256 PUSH1 0x3 ADD PUSH1 0x0 DUP2 SLOAD DUP1 SWAP3 SWAP2 SWAP1 PUSH2 0xE84 SWAP1 PUSH2 0x2570 JUMP JUMPDEST SWAP2 SWAP1 POP SSTORE POP POP POP POP JUMP JUMPDEST PUSH1 0x0 PUSH2 0xEBC PUSH32 0x3255D2B380AD599BC4F2569C50B9D7339C86B6B4A26B079C60FCAE2581CE6D92 PUSH1 0x0 SHL PUSH2 0x1C5F JUMP JUMPDEST PUSH2 0xEE8 PUSH32 0x9F83A05B2AA01D14259B9BF487B3AA9F68489126F4BE31A618AB6CDF99F911AB PUSH1 0x0 SHL PUSH2 0x1C5F JUMP JUMPDEST PUSH2 0xF14 PUSH32 0x3A63979EE34BC07943DD40173AF6343936FB8B32F81AE8F29D47C7597A93FB91 PUSH1 0x0 SHL PUSH2 0x1C5F JUMP JUMPDEST SELFBALANCE SWAP1 POP SWAP1 JUMP JUMPDEST PUSH2 0xF46 PUSH32 0x1B032D1FA40B9DC5652B70C14B0B2A235AE3FF926ABFA4534B2DD2E7B6ED1CB5 PUSH1 0x0 SHL PUSH2 0x1C5F JUMP JUMPDEST PUSH2 0xF72 PUSH32 0x30D66EAA4EC47667D987E67E05679215E2B0F2FCF6F66CBD00416AF8D9035B3E PUSH1 0x0 SHL PUSH2 0x1C5F JUMP JUMPDEST PUSH2 0xF9E PUSH32 0x59C45000630D1D1D875D9E47269D37F5B3C3C47A0328558BEFBDF979435167D PUSH1 0x0 SHL PUSH2 0x1C5F JUMP JUMPDEST PUSH2 0xFCA PUSH32 0x980102605C88D5C22721350001A7CFD69CA2128527BCA0CB8681E25EAE43E9AC PUSH1 0x0 SHL PUSH2 0x1C5F JUMP JUMPDEST PUSH1 0x0 DUP1 SLOAD SWAP1 PUSH2 0x100 EXP SWAP1 DIV PUSH20 0xFFFFFFFFFFFFFFFFFFFFFFFFFFFFFFFFFFFFFFFF AND PUSH20 0xFFFFFFFFFFFFFFFFFFFFFFFFFFFFFFFFFFFFFFFF AND CALLER PUSH20 0xFFFFFFFFFFFFFFFFFFFFFFFFFFFFFFFFFFFFFFFF AND EQ PUSH2 0x1058 JUMPI PUSH1 0x40 MLOAD PUSH32 0x8C379A000000000000000000000000000000000000000000000000000000000 DUP2 MSTORE PUSH1 0x4 ADD PUSH2 0x104F SWAP1 PUSH2 0x245D JUMP JUMPDEST PUSH1 0x40 MLOAD DUP1 SWAP2 SUB SWAP1 REVERT JUMPDEST PUSH2 0x1084 PUSH32 0xE72BB15E4DC90EAA73644748C5ECCA33299D3A1A07C6E3D0295072B038A0B87D PUSH1 0x0 SHL PUSH2 0x1C5F JUMP JUMPDEST PUSH2 0x10B0 PUSH32 0xEE98017490A137745E97A224826D53503D2AA5A4AE185338BB91D42E298BF07 PUSH1 0x0 SHL PUSH2 0x1C5F JUMP JUMPDEST PUSH2 0x10DC PUSH32 0xE4C06185FA667F47CAFD1C5E8C3DF25F77C3B20A5900DDC8CFE54E9DC3135BAC PUSH1 0x0 SHL PUSH2 0x1C5F JUMP JUMPDEST PUSH2 0x1108 PUSH32 0xA0D79D5C7620DFF00F63BF28B7895E30793BDEB437BDC42DA952E96A5DB27E40 PUSH1 0x0 SHL PUSH2 0x1C5F JUMP JUMPDEST PUSH2 0x1134 PUSH32 0x784E0F92841B460E9B1B9401C474FC06391DD25A4E721BB2A4BFE9CCD35AD433 PUSH1 0x0 SHL PUSH2 0x1C5F JUMP JUMPDEST PUSH1 0x0 PUSH1 0x2 PUSH1 0x0 DUP4 DUP2 MSTORE PUSH1 0x20 ADD SWAP1 DUP2 MSTORE PUSH1 0x20 ADD PUSH1 0x0 KECCAK256 PUSH1 0x0 PUSH1 0x1 DUP2 MSTORE PUSH1 0x20 ADD SWAP1 DUP2 MSTORE PUSH1 0x20 ADD PUSH1 0x0 KECCAK256 PUSH1 0x3 ADD SLOAD SWAP1 POP PUSH2 0x118D PUSH32 0xE4264F0D97C0F34CFC229AEA5A90E99CF47169B911F5E65F7D83B139276E07CC PUSH1 0x0 SHL PUSH2 0x1C5F JUMP JUMPDEST PUSH2 0x11B9 PUSH32 0xBE74B71A821583978F7640DF49D05209543567E3ECE75A4797C0C0A88B140D8D PUSH1 0x0 SHL PUSH2 0x1C5F JUMP JUMPDEST PUSH1 0x0 PUSH1 0x2 PUSH1 0x0 DUP5 DUP2 MSTORE PUSH1 0x20 ADD SWAP1 DUP2 MSTORE PUSH1 0x20 ADD PUSH1 0x0 KECCAK256 PUSH1 0x0 PUSH1 0x1 DUP2 MSTORE PUSH1 0x20 ADD SWAP1 DUP2 MSTORE PUSH1 0x20 ADD PUSH1 0x0 KECCAK256 PUSH1 0x2 ADD SLOAD SWAP1 POP PUSH2 0x1212 PUSH32 0x330AEBD51BDB879842A9D7FC6632F1167D94B73303C2EEAAC118C83E88C56E3B PUSH1 0x0 SHL PUSH2 0x1C5F JUMP JUMPDEST PUSH2 0x123E PUSH32 0xBC7DD252D2D8F822EA555DBF22124CE92F0EF3364E193C01DD41F55FD8033D6 PUSH1 0x0 SHL PUSH2 0x1C5F JUMP JUMPDEST PUSH1 0x0 PUSH1 0x2 SWAP1 POP JUMPDEST PUSH1 0x3 PUSH1 0x0 DUP6 DUP2 MSTORE PUSH1 0x20 ADD SWAP1 DUP2 MSTORE PUSH1 0x20 ADD PUSH1 0x0 KECCAK256 PUSH1 0x1 ADD SLOAD DUP2 GT PUSH2 0x145E JUMPI PUSH2 0x128E PUSH32 0x64CAAEE99125F870B281037E2EB740BB192B785540AF8B3A2786F92A2E15B40B PUSH1 0x0 SHL PUSH2 0x1C5F JUMP JUMPDEST PUSH2 0x12BA PUSH32 0x97F50010844EC10DBB98685A166D4B1C9F98A2BE6DE578A51E7230BC57C3134C PUSH1 0x0 SHL PUSH2 0x1C5F JUMP JUMPDEST PUSH1 0x2 PUSH1 0x0 DUP6 DUP2 MSTORE PUSH1 0x20 ADD SWAP1 DUP2 MSTORE PUSH1 0x20 ADD PUSH1 0x0 KECCAK256 PUSH1 0x0 DUP3 DUP2 MSTORE PUSH1 0x20 ADD SWAP1 DUP2 MSTORE PUSH1 0x20 ADD PUSH1 0x0 KECCAK256 PUSH1 0x3 ADD SLOAD DUP4 LT ISZERO PUSH2 0x141E JUMPI PUSH2 0x1315 PUSH32 0xD5F0DD0C14A3C305B9A454530F5C7EF53D34F1B04CEAAE83E6E09719BC4609AF PUSH1 0x0 SHL PUSH2 0x1C5F JUMP JUMPDEST PUSH2 0x1341 PUSH32 0x8398F85E7F8BC21C08A4C21E81E66BF240D5EA96F5DF2702035D20116A94898D PUSH1 0x0 SHL PUSH2 0x1C5F JUMP JUMPDEST PUSH2 0x136D PUSH32 0xE44087C5D43164E2C296FC25767330090A31FC6A468F3257AE490FD3BB555D2A PUSH1 0x0 SHL PUSH2 0x1C5F JUMP JUMPDEST PUSH1 0x2 PUSH1 0x0 DUP6 DUP2 MSTORE PUSH1 0x20 ADD SWAP1 DUP2 MSTORE PUSH1 0x20 ADD PUSH1 0x0 KECCAK256 PUSH1 0x0 DUP3 DUP2 MSTORE PUSH1 0x20 ADD SWAP1 DUP2 MSTORE PUSH1 0x20 ADD PUSH1 0x0 KECCAK256 PUSH1 0x3 ADD SLOAD SWAP3 POP PUSH2 0x13C3 PUSH32 0x7D7271151BB3E0B0303CB1CEDA9D41A3339AF07BCB738208FC7DF2447B5EADD5 PUSH1 0x0 SHL PUSH2 0x1C5F JUMP JUMPDEST PUSH2 0x13EF PUSH32 0xFC14BAEE2894B8DC72BD614E49F3C4258976ACA65FAC14B6D4A71FFD0D3A19EE PUSH1 0x0 SHL PUSH2 0x1C5F JUMP JUMPDEST PUSH1 0x2 PUSH1 0x0 DUP6 DUP2 MSTORE PUSH1 0x20 ADD SWAP1 DUP2 MSTORE PUSH1 0x20 ADD PUSH1 0x0 KECCAK256 PUSH1 0x0 DUP3 DUP2 MSTORE PUSH1 0x20 ADD SWAP1 DUP2 MSTORE PUSH1 0x20 ADD PUSH1 0x0 KECCAK256 PUSH1 0x2 ADD SLOAD SWAP2 POP PUSH2 0x144B JUMP JUMPDEST PUSH2 0x144A PUSH32 0xFEAD74723AA0ADA0CD5D8CA6D0C28ECDD7F985F373456A698CA2C1F741E01EE7 PUSH1 0x0 SHL PUSH2 0x1C5F JUMP JUMPDEST JUMPDEST DUP1 DUP1 PUSH2 0x1456 SWAP1 PUSH2 0x2570 JUMP JUMPDEST SWAP2 POP POP PUSH2 0x1245 JUMP JUMPDEST POP PUSH2 0x148B PUSH32 0x1B49AEB062AC44CF1B7ED531811CE7F6DE6814FACF00C83862ACD807DBAFE3FF PUSH1 0x0 SHL PUSH2 0x1C5F JUMP JUMPDEST PUSH2 0x14B7 PUSH32 0x304D8ECBBF9CC22D98C7532A10FC521C958561312357E33BDA6C207CEBD90B79 PUSH1 0x0 SHL PUSH2 0x1C5F JUMP JUMPDEST PUSH1 0x0 PUSH1 0x2 PUSH1 0x0 DUP6 DUP2 MSTORE PUSH1 0x20 ADD SWAP1 DUP2 MSTORE PUSH1 0x20 ADD PUSH1 0x0 KECCAK256 PUSH1 0x0 DUP4 DUP2 MSTORE PUSH1 0x20 ADD SWAP1 DUP2 MSTORE PUSH1 0x20 ADD PUSH1 0x0 KECCAK256 PUSH1 0x1 ADD PUSH1 0x0 SWAP1 SLOAD SWAP1 PUSH2 0x100 EXP SWAP1 DIV PUSH20 0xFFFFFFFFFFFFFFFFFFFFFFFFFFFFFFFFFFFFFFFF AND SWAP1 POP PUSH2 0x152F PUSH32 0x9329107A6A37C56C59E8C60F08766F243454A3EF0B1567B67246661D345A898A PUSH1 0x0 SHL PUSH2 0x1C5F JUMP JUMPDEST PUSH2 0x155B PUSH32 0xDD9FA5BB146D4BE0D44EDBCAFDE88F0C83A00C37BA00D21799AE55070ADB4299 PUSH1 0x0 SHL PUSH2 0x1C5F JUMP JUMPDEST DUP1 PUSH20 0xFFFFFFFFFFFFFFFFFFFFFFFFFFFFFFFFFFFFFFFF AND PUSH2 0x8FC PUSH1 0xA PUSH1 0x9 SELFBALANCE PUSH2 0x1584 SWAP2 SWAP1 PUSH2 0x26FD JUMP JUMPDEST PUSH2 0x158E SWAP2 SWAP1 PUSH2 0x2786 JUMP JUMPDEST SWAP1 DUP2 ISZERO MUL SWAP1 PUSH1 0x40 MLOAD PUSH1 0x0 PUSH1 0x40 MLOAD DUP1 DUP4 SUB DUP2 DUP6 DUP9 DUP9 CALL SWAP4 POP POP POP POP ISZERO DUP1 ISZERO PUSH2 0x15B9 JUMPI RETURNDATASIZE PUSH1 0x0 DUP1 RETURNDATACOPY RETURNDATASIZE PUSH1 0x0 REVERT JUMPDEST POP POP POP POP POP JUMP JUMPDEST PUSH2 0x15EC PUSH32 0x1B032D1FA40B9DC5652B70C14B0B2A235AE3FF926ABFA4534B2DD2E7B6ED1CB5 PUSH1 0x0 SHL PUSH2 0x1C5F JUMP JUMPDEST PUSH2 0x1618 PUSH32 0x30D66EAA4EC47667D987E67E05679215E2B0F2FCF6F66CBD00416AF8D9035B3E PUSH1 0x0 SHL PUSH2 0x1C5F JUMP JUMPDEST PUSH2 0x1644 PUSH32 0x59C45000630D1D1D875D9E47269D37F5B3C3C47A0328558BEFBDF979435167D PUSH1 0x0 SHL PUSH2 0x1C5F JUMP JUMPDEST PUSH2 0x1670 PUSH32 0x980102605C88D5C22721350001A7CFD69CA2128527BCA0CB8681E25EAE43E9AC PUSH1 0x0 SHL PUSH2 0x1C5F JUMP JUMPDEST PUSH1 0x0 DUP1 SLOAD SWAP1 PUSH2 0x100 EXP SWAP1 DIV PUSH20 0xFFFFFFFFFFFFFFFFFFFFFFFFFFFFFFFFFFFFFFFF AND PUSH20 0xFFFFFFFFFFFFFFFFFFFFFFFFFFFFFFFFFFFFFFFF AND CALLER PUSH20 0xFFFFFFFFFFFFFFFFFFFFFFFFFFFFFFFFFFFFFFFF AND EQ PUSH2 0x16FE JUMPI PUSH1 0x40 MLOAD PUSH32 0x8C379A000000000000000000000000000000000000000000000000000000000 DUP2 MSTORE PUSH1 0x4 ADD PUSH2 0x16F5 SWAP1 PUSH2 0x245D JUMP JUMPDEST PUSH1 0x40 MLOAD DUP1 SWAP2 SUB SWAP1 REVERT JUMPDEST PUSH2 0x172A PUSH32 0xE72BB15E4DC90EAA73644748C5ECCA33299D3A1A07C6E3D0295072B038A0B87D PUSH1 0x0 SHL PUSH2 0x1C5F JUMP JUMPDEST PUSH2 0x1756 PUSH32 0xEE98017490A137745E97A224826D53503D2AA5A4AE185338BB91D42E298BF07 PUSH1 0x0 SHL PUSH2 0x1C5F JUMP JUMPDEST PUSH2 0x1782 PUSH32 0xA5714F1D9331599FE21049FAAB70CEBD2C5D93E2D1BA1C25A52F5BE60FB71875 PUSH1 0x0 SHL PUSH2 0x1C5F JUMP JUMPDEST PUSH2 0x17AE PUSH32 0xD78A78BFE90F7BFEB09A57D36AD38A07CDE9073C23C297FC630F853EDF42E09C PUSH1 0x0 SHL PUSH2 0x1C5F JUMP JUMPDEST PUSH1 0x8 PUSH1 0x0 DUP2 SLOAD DUP1 SWAP3 SWAP2 SWAP1 PUSH2 0x17C1 SWAP1 PUSH2 0x2570 JUMP JUMPDEST SWAP2 SWAP1 POP SSTORE POP PUSH2 0x17F2 PUSH32 0xBF995EE4EA69DB82E4244E814C11BEA2EA94B739173433603687339E6BE12CF PUSH1 0x0 SHL PUSH2 0x1C5F JUMP JUMPDEST PUSH2 0x181E PUSH32 0x8C066E82B82BB7B508158F85F270E574FA543137357496AE10DB6A49A95E5607 PUSH1 0x0 SHL PUSH2 0x1C5F JUMP JUMPDEST PUSH1 0x3 DUP1 PUSH1 0x0 PUSH1 0x8 SLOAD DUP2 MSTORE PUSH1 0x20 ADD SWAP1 DUP2 MSTORE PUSH1 0x20 ADD PUSH1 0x0 KECCAK256 PUSH1 0x1 ADD DUP2 SWAP1 SSTORE POP PUSH2 0x1867 PUSH32 0x8CAE26DA538FA2FBE657AE60F6D7967A37D2C15ABE4EB20142956A12AB4C0AEE PUSH1 0x0 SHL PUSH2 0x1C5F JUMP JUMPDEST PUSH2 0x1893 PUSH32 0x7C72D32806EF5D5A8A5BE5D6140E5F8BD525DC1284CF820206949BC24F674C4F PUSH1 0x0 SHL PUSH2 0x1C5F JUMP JUMPDEST PUSH1 0x8 SLOAD PUSH1 0x3 PUSH1 0x0 PUSH1 0x8 SLOAD DUP2 MSTORE PUSH1 0x20 ADD SWAP1 DUP2 MSTORE PUSH1 0x20 ADD PUSH1 0x0 KECCAK256 PUSH1 0x0 ADD DUP2 SWAP1 SSTORE POP PUSH2 0x18DE PUSH32 0x71CD7A68BBAAAA7CA916B98A72DBF171598E9FD7E02AA6A575533AC901AB86D4 PUSH1 0x0 SHL PUSH2 0x1C5F JUMP JUMPDEST PUSH2 0x190A PUSH32 0xD6132AF9644F15D7AEFA5BEFE9DAA1367A68A2BDFB3B07FA8327FB57660CC5E7 PUSH1 0x0 SHL PUSH2 0x1C5F JUMP JUMPDEST PUSH1 0x0 JUMPDEST PUSH1 0x3 PUSH1 0x0 PUSH1 0x8 SLOAD DUP2 MSTORE PUSH1 0x20 ADD SWAP1 DUP2 MSTORE PUSH1 0x20 ADD PUSH1 0x0 KECCAK256 PUSH1 0x1 ADD SLOAD DUP2 LT ISZERO PUSH2 0x1B7A JUMPI PUSH2 0x1959 PUSH32 0x359AB59E0FEB09F62B2466C73754C6C1F244EDC48C143329B759BC29C5CFCD19 PUSH1 0x0 SHL PUSH2 0x1C5F JUMP JUMPDEST PUSH2 0x1985 PUSH32 0xC230ECDF3F6B72C04DC019A2EA6E5B85A4514328F6AA327B0830F24A555C5B69 PUSH1 0x0 SHL PUSH2 0x1C5F JUMP JUMPDEST DUP3 DUP2 PUSH1 0x3 DUP2 LT PUSH2 0x1998 JUMPI PUSH2 0x1997 PUSH2 0x2541 JUMP JUMPDEST JUMPDEST PUSH1 0x20 MUL ADD MLOAD PUSH1 0x2 PUSH1 0x0 PUSH1 0x8 SLOAD DUP2 MSTORE PUSH1 0x20 ADD SWAP1 DUP2 MSTORE PUSH1 0x20 ADD PUSH1 0x0 KECCAK256 PUSH1 0x0 PUSH1 0x1 DUP5 PUSH2 0x19C1 SWAP2 SWAP1 PUSH2 0x27B7 JUMP JUMPDEST DUP2 MSTORE PUSH1 0x20 ADD SWAP1 DUP2 MSTORE PUSH1 0x20 ADD PUSH1 0x0 KECCAK256 PUSH1 0x0 ADD SWAP1 DUP1 MLOAD SWAP1 PUSH1 0x20 ADD SWAP1 PUSH2 0x19E5 SWAP3 SWAP2 SWAP1 PUSH2 0x1C62 JUMP JUMPDEST POP PUSH2 0x1A12 PUSH32 0xEE4A64B5E2EFCA9803A11C2811B78356DD11D01E0770CBEB1EB4F8A3FE778569 PUSH1 0x0 SHL PUSH2 0x1C5F JUMP JUMPDEST PUSH2 0x1A3E PUSH32 0xDAD4192229C581BB9D3FB5BE9505DE4483340993959F06E6250E09BFEE9543F5 PUSH1 0x0 SHL PUSH2 0x1C5F JUMP JUMPDEST DUP2 DUP2 PUSH1 0x3 DUP2 LT PUSH2 0x1A51 JUMPI PUSH2 0x1A50 PUSH2 0x2541 JUMP JUMPDEST JUMPDEST PUSH1 0x20 MUL ADD MLOAD PUSH1 0x2 PUSH1 0x0 PUSH1 0x8 SLOAD DUP2 MSTORE PUSH1 0x20 ADD SWAP1 DUP2 MSTORE PUSH1 0x20 ADD PUSH1 0x0 KECCAK256 PUSH1 0x0 PUSH1 0x1 DUP5 PUSH2 0x1A7A SWAP2 SWAP1 PUSH2 0x27B7 JUMP JUMPDEST DUP2 MSTORE PUSH1 0x20 ADD SWAP1 DUP2 MSTORE PUSH1 0x20 ADD PUSH1 0x0 KECCAK256 PUSH1 0x1 ADD PUSH1 0x0 PUSH2 0x100 EXP DUP2 SLOAD DUP2 PUSH20 0xFFFFFFFFFFFFFFFFFFFFFFFFFFFFFFFFFFFFFFFF MUL NOT AND SWAP1 DUP4 PUSH20 0xFFFFFFFFFFFFFFFFFFFFFFFFFFFFFFFFFFFFFFFF AND MUL OR SWAP1 SSTORE POP PUSH2 0x1AF5 PUSH32 0xB8210183C0E8922A5AD24A16188FBBC1FC38B3843E35CD3ADE97A7C8DA9A2864 PUSH1 0x0 SHL PUSH2 0x1C5F JUMP JUMPDEST PUSH2 0x1B21 PUSH32 0x9533D038370BA8966A369BAEDF3AD756407EA63B6A26D76A4B210B0F3DE79F1F PUSH1 0x0 SHL PUSH2 0x1C5F JUMP JUMPDEST PUSH1 0x1 DUP2 PUSH2 0x1B2E SWAP2 SWAP1 PUSH2 0x27B7 JUMP JUMPDEST PUSH1 0x2 PUSH1 0x0 PUSH1 0x8 SLOAD DUP2 MSTORE PUSH1 0x20 ADD SWAP1 DUP2 MSTORE PUSH1 0x20 ADD PUSH1 0x0 KECCAK256 PUSH1 0x0 PUSH1 0x1 DUP5 PUSH2 0x1B52 SWAP2 SWAP1 PUSH2 0x27B7 JUMP JUMPDEST DUP2 MSTORE PUSH1 0x20 ADD SWAP1 DUP2 MSTORE PUSH1 0x20 ADD PUSH1 0x0 KECCAK256 PUSH1 0x2 ADD DUP2 SWAP1 SSTORE POP DUP1 DUP1 PUSH2 0x1B72 SWAP1 PUSH2 0x2570 JUMP JUMPDEST SWAP2 POP POP PUSH2 0x190D JUMP JUMPDEST POP PUSH2 0x1BA7 PUSH32 0xEFBA2A44C779564AE0E2E8EC6582BC0D48442EB91C522630B68CDE760053EC8F PUSH1 0x0 SHL PUSH2 0x1C5F JUMP JUMPDEST PUSH2 0x1BD3 PUSH32 0xF922A97C71917B7A7CF90726C0774ACB3F743D266AB992EB98EC52DACF20FE6E PUSH1 0x0 SHL PUSH2 0x1C5F JUMP JUMPDEST TIMESTAMP PUSH1 0x4 DUP2 SWAP1 SSTORE POP PUSH2 0x1C06 PUSH32 0x56B287A2909C7EA65457305962A71888A7F2F00684FA5006035A4390AB1F1086 PUSH1 0x0 SHL PUSH2 0x1C5F JUMP JUMPDEST PUSH2 0x1C32 PUSH32 0x110EA78CE626A5A3C1B9CCFD025E6B228E0156D53F17E9BF0E2235A996351FD PUSH1 0x0 SHL PUSH2 0x1C5F JUMP JUMPDEST PUSH1 0x7 SLOAD PUSH1 0x4 SLOAD PUSH2 0x1C42 SWAP2 SWAP1 PUSH2 0x27B7 JUMP JUMPDEST PUSH1 0x5 PUSH1 0x0 PUSH1 0x8 SLOAD DUP2 MSTORE PUSH1 0x20 ADD SWAP1 DUP2 MSTORE PUSH1 0x20 ADD PUSH1 0x0 KECCAK256 DUP2 SWAP1 SSTORE POP POP POP JUMP JUMPDEST POP JUMP JUMPDEST DUP3 DUP1 SLOAD PUSH2 0x1C6E SWAP1 PUSH2 0x24AC JUMP JUMPDEST SWAP1 PUSH1 0x0 MSTORE PUSH1 0x20 PUSH1 0x0 KECCAK256 SWAP1 PUSH1 0x1F ADD PUSH1 0x20 SWAP1 DIV DUP2 ADD SWAP3 DUP3 PUSH2 0x1C90 JUMPI PUSH1 0x0 DUP6 SSTORE PUSH2 0x1CD7 JUMP JUMPDEST DUP3 PUSH1 0x1F LT PUSH2 0x1CA9 JUMPI DUP1 MLOAD PUSH1 0xFF NOT AND DUP4 DUP1 ADD OR DUP6 SSTORE PUSH2 0x1CD7 JUMP JUMPDEST DUP3 DUP1 ADD PUSH1 0x1 ADD DUP6 SSTORE DUP3 ISZERO PUSH2 0x1CD7 JUMPI SWAP2 DUP3 ADD JUMPDEST DUP3 DUP2 GT ISZERO PUSH2 0x1CD6 JUMPI DUP3 MLOAD DUP3 SSTORE SWAP2 PUSH1 0x20 ADD SWAP2 SWAP1 PUSH1 0x1 ADD SWAP1 PUSH2 0x1CBB JUMP JUMPDEST JUMPDEST POP SWAP1 POP PUSH2 0x1CE4 SWAP2 SWAP1 PUSH2 0x1CE8 JUMP JUMPDEST POP SWAP1 JUMP JUMPDEST JUMPDEST DUP1 DUP3 GT ISZERO PUSH2 0x1D01 JUMPI PUSH1 0x0 DUP2 PUSH1 0x0 SWAP1 SSTORE POP PUSH1 0x1 ADD PUSH2 0x1CE9 JUMP JUMPDEST POP SWAP1 JUMP JUMPDEST PUSH1 0x0 PUSH1 0x40 MLOAD SWAP1 POP SWAP1 JUMP JUMPDEST PUSH1 0x0 DUP1 REVERT JUMPDEST PUSH1 0x0 DUP1 REVERT JUMPDEST PUSH1 0x0 DUP2 SWAP1 POP SWAP2 SWAP1 POP JUMP JUMPDEST PUSH2 0x1D2C DUP2 PUSH2 0x1D19 JUMP JUMPDEST DUP2 EQ PUSH2 0x1D37 JUMPI PUSH1 0x0 DUP1 REVERT JUMPDEST POP JUMP JUMPDEST PUSH1 0x0 DUP2 CALLDATALOAD SWAP1 POP PUSH2 0x1D49 DUP2 PUSH2 0x1D23 JUMP JUMPDEST SWAP3 SWAP2 POP POP JUMP JUMPDEST PUSH1 0x0 PUSH1 0x20 DUP3 DUP5 SUB SLT ISZERO PUSH2 0x1D65 JUMPI PUSH2 0x1D64 PUSH2 0x1D0F JUMP JUMPDEST JUMPDEST PUSH1 0x0 PUSH2 0x1D73 DUP5 DUP3 DUP6 ADD PUSH2 0x1D3A JUMP JUMPDEST SWAP2 POP POP SWAP3 SWAP2 POP POP JUMP JUMPDEST PUSH2 0x1D85 DUP2 PUSH2 0x1D19 JUMP JUMPDEST DUP3 MSTORE POP POP JUMP JUMPDEST PUSH1 0x0 PUSH1 0x60 DUP3 ADD SWAP1 POP PUSH2 0x1DA0 PUSH1 0x0 DUP4 ADD DUP7 PUSH2 0x1D7C JUMP JUMPDEST PUSH2 0x1DAD PUSH1 0x20 DUP4 ADD DUP6 PUSH2 0x1D7C JUMP JUMPDEST PUSH2 0x1DBA PUSH1 0x40 DUP4 ADD DUP5 PUSH2 0x1D7C JUMP JUMPDEST SWAP5 SWAP4 POP POP POP POP JUMP JUMPDEST PUSH1 0x0 PUSH20 0xFFFFFFFFFFFFFFFFFFFFFFFFFFFFFFFFFFFFFFFF DUP3 AND SWAP1 POP SWAP2 SWAP1 POP JUMP JUMPDEST PUSH1 0x0 PUSH2 0x1DED DUP3 PUSH2 0x1DC2 JUMP JUMPDEST SWAP1 POP SWAP2 SWAP1 POP JUMP JUMPDEST PUSH2 0x1DFD DUP2 PUSH2 0x1DE2 JUMP JUMPDEST DUP3 MSTORE POP POP JUMP JUMPDEST PUSH1 0x0 PUSH1 0x20 DUP3 ADD SWAP1 POP PUSH2 0x1E18 PUSH1 0x0 DUP4 ADD DUP5 PUSH2 0x1DF4 JUMP JUMPDEST SWAP3 SWAP2 POP POP JUMP JUMPDEST PUSH1 0x0 PUSH2 0x1E29 DUP3 PUSH2 0x1DC2 JUMP JUMPDEST SWAP1 POP SWAP2 SWAP1 POP JUMP JUMPDEST PUSH2 0x1E39 DUP2 PUSH2 0x1E1E JUMP JUMPDEST DUP2 EQ PUSH2 0x1E44 JUMPI PUSH1 0x0 DUP1 REVERT JUMPDEST POP JUMP JUMPDEST PUSH1 0x0 DUP2 CALLDATALOAD SWAP1 POP PUSH2 0x1E56 DUP2 PUSH2 0x1E30 JUMP JUMPDEST SWAP3 SWAP2 POP POP JUMP JUMPDEST PUSH1 0x0 PUSH1 0x20 DUP3 DUP5 SUB SLT ISZERO PUSH2 0x1E72 JUMPI PUSH2 0x1E71 PUSH2 0x1D0F JUMP JUMPDEST JUMPDEST PUSH1 0x0 PUSH2 0x1E80 DUP5 DUP3 DUP6 ADD PUSH2 0x1E47 JUMP JUMPDEST SWAP2 POP POP SWAP3 SWAP2 POP POP JUMP JUMPDEST PUSH1 0x0 DUP1 PUSH1 0x40 DUP4 DUP6 SUB SLT ISZERO PUSH2 0x1EA0 JUMPI PUSH2 0x1E9F PUSH2 0x1D0F JUMP JUMPDEST JUMPDEST PUSH1 0x0 PUSH2 0x1EAE DUP6 DUP3 DUP7 ADD PUSH2 0x1D3A JUMP JUMPDEST SWAP3 POP POP PUSH1 0x20 PUSH2 0x1EBF DUP6 DUP3 DUP7 ADD PUSH2 0x1D3A JUMP JUMPDEST SWAP2 POP POP SWAP3 POP SWAP3 SWAP1 POP JUMP JUMPDEST PUSH1 0x0 DUP2 MLOAD SWAP1 POP SWAP2 SWAP1 POP JUMP JUMPDEST PUSH1 0x0 DUP3 DUP3 MSTORE PUSH1 0x20 DUP3 ADD SWAP1 POP SWAP3 SWAP2 POP POP JUMP JUMPDEST PUSH1 0x0 JUMPDEST DUP4 DUP2 LT ISZERO PUSH2 0x1F03 JUMPI DUP1 DUP3 ADD MLOAD DUP2 DUP5 ADD MSTORE PUSH1 0x20 DUP2 ADD SWAP1 POP PUSH2 0x1EE8 JUMP JUMPDEST DUP4 DUP2 GT ISZERO PUSH2 0x1F12 JUMPI PUSH1 0x0 DUP5 DUP5 ADD MSTORE JUMPDEST POP POP POP POP JUMP JUMPDEST PUSH1 0x0 PUSH1 0x1F NOT PUSH1 0x1F DUP4 ADD AND SWAP1 POP SWAP2 SWAP1 POP JUMP JUMPDEST PUSH1 0x0 PUSH2 0x1F34 DUP3 PUSH2 0x1EC9 JUMP JUMPDEST PUSH2 0x1F3E DUP2 DUP6 PUSH2 0x1ED4 JUMP JUMPDEST SWAP4 POP PUSH2 0x1F4E DUP2 DUP6 PUSH1 0x20 DUP7 ADD PUSH2 0x1EE5 JUMP JUMPDEST PUSH2 0x1F57 DUP2 PUSH2 0x1F18 JUMP JUMPDEST DUP5 ADD SWAP2 POP POP SWAP3 SWAP2 POP POP JUMP JUMPDEST PUSH1 0x0 PUSH1 0x80 DUP3 ADD SWAP1 POP DUP2 DUP2 SUB PUSH1 0x0 DUP4 ADD MSTORE PUSH2 0x1F7C DUP2 DUP8 PUSH2 0x1F29 JUMP JUMPDEST SWAP1 POP PUSH2 0x1F8B PUSH1 0x20 DUP4 ADD DUP7 PUSH2 0x1DF4 JUMP JUMPDEST PUSH2 0x1F98 PUSH1 0x40 DUP4 ADD DUP6 PUSH2 0x1D7C JUMP JUMPDEST PUSH2 0x1FA5 PUSH1 0x60 DUP4 ADD DUP5 PUSH2 0x1D7C JUMP JUMPDEST SWAP6 SWAP5 POP POP POP POP POP JUMP JUMPDEST PUSH1 0x0 DUP2 MLOAD SWAP1 POP SWAP2 SWAP1 POP JUMP JUMPDEST PUSH1 0x0 DUP3 DUP3 MSTORE PUSH1 0x20 DUP3 ADD SWAP1 POP SWAP3 SWAP2 POP POP JUMP JUMPDEST PUSH1 0x0 DUP2 SWAP1 POP PUSH1 0x20 DUP3 ADD SWAP1 POP SWAP2 SWAP1 POP JUMP JUMPDEST PUSH2 0x1FE3 DUP2 PUSH2 0x1D19 JUMP JUMPDEST DUP3 MSTORE POP POP JUMP JUMPDEST PUSH1 0x0 PUSH2 0x1FF5 DUP4 DUP4 PUSH2 0x1FDA JUMP JUMPDEST PUSH1 0x20 DUP4 ADD SWAP1 POP SWAP3 SWAP2 POP POP JUMP JUMPDEST PUSH1 0x0 PUSH1 0x20 DUP3 ADD SWAP1 POP SWAP2 SWAP1 POP JUMP JUMPDEST PUSH1 0x0 PUSH2 0x2019 DUP3 PUSH2 0x1FAE JUMP JUMPDEST PUSH2 0x2023 DUP2 DUP6 PUSH2 0x1FB9 JUMP JUMPDEST SWAP4 POP PUSH2 0x202E DUP4 PUSH2 0x1FCA JUMP JUMPDEST DUP1 PUSH1 0x0 JUMPDEST DUP4 DUP2 LT ISZERO PUSH2 0x205F JUMPI DUP2 MLOAD PUSH2 0x2046 DUP9 DUP3 PUSH2 0x1FE9 JUMP JUMPDEST SWAP8 POP PUSH2 0x2051 DUP4 PUSH2 0x2001 JUMP JUMPDEST SWAP3 POP POP PUSH1 0x1 DUP2 ADD SWAP1 POP PUSH2 0x2032 JUMP JUMPDEST POP DUP6 SWAP4 POP POP POP POP SWAP3 SWAP2 POP POP JUMP JUMPDEST PUSH1 0x0 PUSH1 0x20 DUP3 ADD SWAP1 POP DUP2 DUP2 SUB PUSH1 0x0 DUP4 ADD MSTORE PUSH2 0x2086 DUP2 DUP5 PUSH2 0x200E JUMP JUMPDEST SWAP1 POP SWAP3 SWAP2 POP POP JUMP JUMPDEST PUSH1 0x0 PUSH1 0x20 DUP3 ADD SWAP1 POP PUSH2 0x20A3 PUSH1 0x0 DUP4 ADD DUP5 PUSH2 0x1D7C JUMP JUMPDEST SWAP3 SWAP2 POP POP JUMP JUMPDEST PUSH1 0x0 DUP1 REVERT JUMPDEST PUSH32 0x4E487B7100000000000000000000000000000000000000000000000000000000 PUSH1 0x0 MSTORE PUSH1 0x41 PUSH1 0x4 MSTORE PUSH1 0x24 PUSH1 0x0 REVERT JUMPDEST PUSH2 0x20E6 DUP3 PUSH2 0x1F18 JUMP JUMPDEST DUP2 ADD DUP2 DUP2 LT PUSH8 0xFFFFFFFFFFFFFFFF DUP3 GT OR ISZERO PUSH2 0x2105 JUMPI PUSH2 0x2104 PUSH2 0x20AE JUMP JUMPDEST JUMPDEST DUP1 PUSH1 0x40 MSTORE POP POP POP JUMP JUMPDEST PUSH1 0x0 PUSH2 0x2118 PUSH2 0x1D05 JUMP JUMPDEST SWAP1 POP PUSH2 0x2124 DUP3 DUP3 PUSH2 0x20DD JUMP JUMPDEST SWAP2 SWAP1 POP JUMP JUMPDEST PUSH1 0x0 PUSH8 0xFFFFFFFFFFFFFFFF DUP3 GT ISZERO PUSH2 0x2144 JUMPI PUSH2 0x2143 PUSH2 0x20AE JUMP JUMPDEST JUMPDEST PUSH1 0x20 DUP3 MUL SWAP1 POP SWAP2 SWAP1 POP JUMP JUMPDEST PUSH1 0x0 DUP1 REVERT JUMPDEST PUSH1 0x0 DUP1 REVERT JUMPDEST PUSH1 0x0 PUSH8 0xFFFFFFFFFFFFFFFF DUP3 GT ISZERO PUSH2 0x2174 JUMPI PUSH2 0x2173 PUSH2 0x20AE JUMP JUMPDEST JUMPDEST PUSH2 0x217D DUP3 PUSH2 0x1F18 JUMP JUMPDEST SWAP1 POP PUSH1 0x20 DUP2 ADD SWAP1 POP SWAP2 SWAP1 POP JUMP JUMPDEST DUP3 DUP2 DUP4 CALLDATACOPY PUSH1 0x0 DUP4 DUP4 ADD MSTORE POP POP POP JUMP JUMPDEST PUSH1 0x0 PUSH2 0x21AC PUSH2 0x21A7 DUP5 PUSH2 0x2159 JUMP JUMPDEST PUSH2 0x210E JUMP JUMPDEST SWAP1 POP DUP3 DUP2 MSTORE PUSH1 0x20 DUP2 ADD DUP5 DUP5 DUP5 ADD GT ISZERO PUSH2 0x21C8 JUMPI PUSH2 0x21C7 PUSH2 0x2154 JUMP JUMPDEST JUMPDEST PUSH2 0x21D3 DUP5 DUP3 DUP6 PUSH2 0x218A JUMP JUMPDEST POP SWAP4 SWAP3 POP POP POP JUMP JUMPDEST PUSH1 0x0 DUP3 PUSH1 0x1F DUP4 ADD SLT PUSH2 0x21F0 JUMPI PUSH2 0x21EF PUSH2 0x20A9 JUMP JUMPDEST JUMPDEST DUP2 CALLDATALOAD PUSH2 0x2200 DUP5 DUP3 PUSH1 0x20 DUP7 ADD PUSH2 0x2199 JUMP JUMPDEST SWAP2 POP POP SWAP3 SWAP2 POP POP JUMP JUMPDEST PUSH1 0x0 PUSH2 0x221C PUSH2 0x2217 DUP5 PUSH2 0x2129 JUMP JUMPDEST PUSH2 0x210E JUMP JUMPDEST SWAP1 POP DUP1 PUSH1 0x20 DUP5 MUL DUP4 ADD DUP6 DUP2 GT ISZERO PUSH2 0x2236 JUMPI PUSH2 0x2235 PUSH2 0x214F JUMP JUMPDEST JUMPDEST DUP4 JUMPDEST DUP2 DUP2 LT ISZERO PUSH2 0x227D JUMPI DUP1 CALLDATALOAD PUSH8 0xFFFFFFFFFFFFFFFF DUP2 GT ISZERO PUSH2 0x225B JUMPI PUSH2 0x225A PUSH2 0x20A9 JUMP JUMPDEST JUMPDEST DUP1 DUP7 ADD PUSH2 0x2268 DUP10 DUP3 PUSH2 0x21DB JUMP JUMPDEST DUP6 MSTORE PUSH1 0x20 DUP6 ADD SWAP5 POP POP POP PUSH1 0x20 DUP2 ADD SWAP1 POP PUSH2 0x2238 JUMP JUMPDEST POP POP POP SWAP4 SWAP3 POP POP POP JUMP JUMPDEST PUSH1 0x0 DUP3 PUSH1 0x1F DUP4 ADD SLT PUSH2 0x229C JUMPI PUSH2 0x229B PUSH2 0x20A9 JUMP JUMPDEST JUMPDEST PUSH1 0x3 PUSH2 0x22A9 DUP5 DUP3 DUP6 PUSH2 0x2209 JUMP JUMPDEST SWAP2 POP POP SWAP3 SWAP2 POP POP JUMP JUMPDEST PUSH1 0x0 PUSH8 0xFFFFFFFFFFFFFFFF DUP3 GT ISZERO PUSH2 0x22CD JUMPI PUSH2 0x22CC PUSH2 0x20AE JUMP JUMPDEST JUMPDEST PUSH1 0x20 DUP3 MUL SWAP1 POP SWAP2 SWAP1 POP JUMP JUMPDEST PUSH2 0x22E1 DUP2 PUSH2 0x1DE2 JUMP JUMPDEST DUP2 EQ PUSH2 0x22EC JUMPI PUSH1 0x0 DUP1 REVERT JUMPDEST POP JUMP JUMPDEST PUSH1 0x0 DUP2 CALLDATALOAD SWAP1 POP PUSH2 0x22FE DUP2 PUSH2 0x22D8 JUMP JUMPDEST SWAP3 SWAP2 POP POP JUMP JUMPDEST PUSH1 0x0 PUSH2 0x2317 PUSH2 0x2312 DUP5 PUSH2 0x22B2 JUMP JUMPDEST PUSH2 0x210E JUMP JUMPDEST SWAP1 POP DUP1 PUSH1 0x20 DUP5 MUL DUP4 ADD DUP6 DUP2 GT ISZERO PUSH2 0x2331 JUMPI PUSH2 0x2330 PUSH2 0x214F JUMP JUMPDEST JUMPDEST DUP4 JUMPDEST DUP2 DUP2 LT ISZERO PUSH2 0x235A JUMPI DUP1 PUSH2 0x2346 DUP9 DUP3 PUSH2 0x22EF JUMP JUMPDEST DUP5 MSTORE PUSH1 0x20 DUP5 ADD SWAP4 POP POP PUSH1 0x20 DUP2 ADD SWAP1 POP PUSH2 0x2333 JUMP JUMPDEST POP POP POP SWAP4 SWAP3 POP POP POP JUMP JUMPDEST PUSH1 0x0 DUP3 PUSH1 0x1F DUP4 ADD SLT PUSH2 0x2379 JUMPI PUSH2 0x2378 PUSH2 0x20A9 JUMP JUMPDEST JUMPDEST PUSH1 0x3 PUSH2 0x2386 DUP5 DUP3 DUP6 PUSH2 0x2304 JUMP JUMPDEST SWAP2 POP POP SWAP3 SWAP2 POP POP JUMP JUMPDEST PUSH1 0x0 DUP1 PUSH1 0x80 DUP4 DUP6 SUB SLT ISZERO PUSH2 0x23A6 JUMPI PUSH2 0x23A5 PUSH2 0x1D0F JUMP JUMPDEST JUMPDEST PUSH1 0x0 DUP4 ADD CALLDATALOAD PUSH8 0xFFFFFFFFFFFFFFFF DUP2 GT ISZERO PUSH2 0x23C4 JUMPI PUSH2 0x23C3 PUSH2 0x1D14 JUMP JUMPDEST JUMPDEST PUSH2 0x23D0 DUP6 DUP3 DUP7 ADD PUSH2 0x2287 JUMP JUMPDEST SWAP3 POP POP PUSH1 0x20 PUSH2 0x23E1 DUP6 DUP3 DUP7 ADD PUSH2 0x2364 JUMP JUMPDEST SWAP2 POP POP SWAP3 POP SWAP3 SWAP1 POP JUMP JUMPDEST PUSH32 0x4F6E6C79206368616972706572736F6E2063616E20737461727420616E642065 PUSH1 0x0 DUP3 ADD MSTORE PUSH32 0x6E642074686520766F74696E6700000000000000000000000000000000000000 PUSH1 0x20 DUP3 ADD MSTORE POP JUMP JUMPDEST PUSH1 0x0 PUSH2 0x2447 PUSH1 0x2D DUP4 PUSH2 0x1ED4 JUMP JUMPDEST SWAP2 POP PUSH2 0x2452 DUP3 PUSH2 0x23EB JUMP JUMPDEST PUSH1 0x40 DUP3 ADD SWAP1 POP SWAP2 SWAP1 POP JUMP JUMPDEST PUSH1 0x0 PUSH1 0x20 DUP3 ADD SWAP1 POP DUP2 DUP2 SUB PUSH1 0x0 DUP4 ADD MSTORE PUSH2 0x2476 DUP2 PUSH2 0x243A JUMP JUMPDEST SWAP1 POP SWAP2 SWAP1 POP JUMP JUMPDEST PUSH32 0x4E487B7100000000000000000000000000000000000000000000000000000000 PUSH1 0x0 MSTORE PUSH1 0x22 PUSH1 0x4 MSTORE PUSH1 0x24 PUSH1 0x0 REVERT JUMPDEST PUSH1 0x0 PUSH1 0x2 DUP3 DIV SWAP1 POP PUSH1 0x1 DUP3 AND DUP1 PUSH2 0x24C4 JUMPI PUSH1 0x7F DUP3 AND SWAP2 POP JUMPDEST PUSH1 0x20 DUP3 LT DUP2 EQ ISZERO PUSH2 0x24D8 JUMPI PUSH2 0x24D7 PUSH2 0x247D JUMP JUMPDEST JUMPDEST POP SWAP2 SWAP1 POP JUMP JUMPDEST PUSH32 0x4E487B7100000000000000000000000000000000000000000000000000000000 PUSH1 0x0 MSTORE PUSH1 0x11 PUSH1 0x4 MSTORE PUSH1 0x24 PUSH1 0x0 REVERT JUMPDEST PUSH1 0x0 PUSH2 0x2518 DUP3 PUSH2 0x1D19 JUMP JUMPDEST SWAP2 POP PUSH2 0x2523 DUP4 PUSH2 0x1D19 JUMP JUMPDEST SWAP3 POP DUP3 DUP3 LT ISZERO PUSH2 0x2536 JUMPI PUSH2 0x2535 PUSH2 0x24DE JUMP JUMPDEST JUMPDEST DUP3 DUP3 SUB SWAP1 POP SWAP3 SWAP2 POP POP JUMP JUMPDEST PUSH32 0x4E487B7100000000000000000000000000000000000000000000000000000000 PUSH1 0x0 MSTORE PUSH1 0x32 PUSH1 0x4 MSTORE PUSH1 0x24 PUSH1 0x0 REVERT JUMPDEST PUSH1 0x0 PUSH2 0x257B DUP3 PUSH2 0x1D19 JUMP JUMPDEST SWAP2 POP PUSH32 0xFFFFFFFFFFFFFFFFFFFFFFFFFFFFFFFFFFFFFFFFFFFFFFFFFFFFFFFFFFFFFFFF DUP3 EQ ISZERO PUSH2 0x25AE JUMPI PUSH2 0x25AD PUSH2 0x24DE JUMP JUMPDEST JUMPDEST PUSH1 0x1 DUP3 ADD SWAP1 POP SWAP2 SWAP1 POP JUMP JUMPDEST PUSH32 0x566F74696E6720697320636C6F73656400000000000000000000000000000000 PUSH1 0x0 DUP3 ADD MSTORE POP JUMP JUMPDEST PUSH1 0x0 PUSH2 0x25EF PUSH1 0x10 DUP4 PUSH2 0x1ED4 JUMP JUMPDEST SWAP2 POP PUSH2 0x25FA DUP3 PUSH2 0x25B9 JUMP JUMPDEST PUSH1 0x20 DUP3 ADD SWAP1 POP SWAP2 SWAP1 POP JUMP JUMPDEST PUSH1 0x0 PUSH1 0x20 DUP3 ADD SWAP1 POP DUP2 DUP2 SUB PUSH1 0x0 DUP4 ADD MSTORE PUSH2 0x261E DUP2 PUSH2 0x25E2 JUMP JUMPDEST SWAP1 POP SWAP2 SWAP1 POP JUMP JUMPDEST PUSH32 0x416C726561647920766F7465642E000000000000000000000000000000000000 PUSH1 0x0 DUP3 ADD MSTORE POP JUMP JUMPDEST PUSH1 0x0 PUSH2 0x265B PUSH1 0xE DUP4 PUSH2 0x1ED4 JUMP JUMPDEST SWAP2 POP PUSH2 0x2666 DUP3 PUSH2 0x2625 JUMP JUMPDEST PUSH1 0x20 DUP3 ADD SWAP1 POP SWAP2 SWAP1 POP JUMP JUMPDEST PUSH1 0x0 PUSH1 0x20 DUP3 ADD SWAP1 POP DUP2 DUP2 SUB PUSH1 0x0 DUP4 ADD MSTORE PUSH2 0x268A DUP2 PUSH2 0x264E JUMP JUMPDEST SWAP1 POP SWAP2 SWAP1 POP JUMP JUMPDEST PUSH32 0x496E76616C696420416D6F756E74000000000000000000000000000000000000 PUSH1 0x0 DUP3 ADD MSTORE POP JUMP JUMPDEST PUSH1 0x0 PUSH2 0x26C7 PUSH1 0xE DUP4 PUSH2 0x1ED4 JUMP JUMPDEST SWAP2 POP PUSH2 0x26D2 DUP3 PUSH2 0x2691 JUMP JUMPDEST PUSH1 0x20 DUP3 ADD SWAP1 POP SWAP2 SWAP1 POP JUMP JUMPDEST PUSH1 0x0 PUSH1 0x20 DUP3 ADD SWAP1 POP DUP2 DUP2 SUB PUSH1 0x0 DUP4 ADD MSTORE PUSH2 0x26F6 DUP2 PUSH2 0x26BA JUMP JUMPDEST SWAP1 POP SWAP2 SWAP1 POP JUMP JUMPDEST PUSH1 0x0 PUSH2 0x2708 DUP3 PUSH2 0x1D19 JUMP JUMPDEST SWAP2 POP PUSH2 0x2713 DUP4 PUSH2 0x1D19 JUMP JUMPDEST SWAP3 POP DUP2 PUSH32 0xFFFFFFFFFFFFFFFFFFFFFFFFFFFFFFFFFFFFFFFFFFFFFFFFFFFFFFFFFFFFFFFF DIV DUP4 GT DUP3 ISZERO ISZERO AND ISZERO PUSH2 0x274C JUMPI PUSH2 0x274B PUSH2 0x24DE JUMP JUMPDEST JUMPDEST DUP3 DUP3 MUL SWAP1 POP SWAP3 SWAP2 POP POP JUMP JUMPDEST PUSH32 0x4E487B7100000000000000000000000000000000000000000000000000000000 PUSH1 0x0 MSTORE PUSH1 0x12 PUSH1 0x4 MSTORE PUSH1 0x24 PUSH1 0x0 REVERT JUMPDEST PUSH1 0x0 PUSH2 0x2791 DUP3 PUSH2 0x1D19 JUMP JUMPDEST SWAP2 POP PUSH2 0x279C DUP4 PUSH2 0x1D19 JUMP JUMPDEST SWAP3 POP DUP3 PUSH2 0x27AC JUMPI PUSH2 0x27AB PUSH2 0x2757 JUMP JUMPDEST JUMPDEST DUP3 DUP3 DIV SWAP1 POP SWAP3 SWAP2 POP POP JUMP JUMPDEST PUSH1 0x0 PUSH2 0x27C2 DUP3 PUSH2 0x1D19 JUMP JUMPDEST SWAP2 POP PUSH2 0x27CD DUP4 PUSH2 0x1D19 JUMP JUMPDEST SWAP3 POP DUP3 PUSH32 0xFFFFFFFFFFFFFFFFFFFFFFFFFFFFFFFFFFFFFFFFFFFFFFFFFFFFFFFFFFFFFFFF SUB DUP3 GT ISZERO PUSH2 0x2802 JUMPI PUSH2 0x2801 PUSH2 0x24DE JUMP JUMPDEST JUMPDEST DUP3 DUP3 ADD SWAP1 POP SWAP3 SWAP2 POP POP JUMP INVALID LOG2 PUSH5 0x6970667358 0x22 SLT KECCAK256 0xCE SLOAD CHAINID DUP8 TIMESTAMP LT 0xF RETURN 0xF6 JUMP 0xB9 0x2B CALLDATACOPY PUSH32 0xFACF53F289924D5195C90F52F4D16777F2D864736F6C63430008090033000000 "
        },
        "methodIdentifiers": {
          "balance()": "b69ef8a8",
          "candidates(uint256,uint256)": "7de14242",
          "chairperson()": "2e4176cf",
          "closeVoting(uint256)": "d2111a72",
          "createVoting(string[3],address[3])": "f4571408",
          "vote(uint256,uint256)": "b384abef",
          "votingDate(uint256)": "0fe2a68d",
          "votingDates(uint256)": "a71f595b",
          "votings(uint256)": "a598d03c",
          "withdrawBalance(address)": "756af45f"
        }
      }
    }
  }
}