{
  "_format": "hh-sol-artifact-1",
  "contractName": "voteCon",
  "sourceName": "contracts/voteCon.sol",
  "abi": [
    {
      "inputs": [],
      "stateMutability": "nonpayable",
      "type": "constructor"
    },
    {
      "inputs": [],
      "name": "balance",
      "outputs": [
        {
          "internalType": "uint256",
          "name": "_balance",
          "type": "uint256"
        }
      ],
      "stateMutability": "view",
      "type": "function"
    },
    {
      "inputs": [
        {
          "internalType": "uint256",
          "name": "",
          "type": "uint256"
        },
        {
          "internalType": "uint256",
          "name": "",
          "type": "uint256"
        }
      ],
      "name": "candidates",
      "outputs": [
        {
          "internalType": "string",
          "name": "name",
          "type": "string"
        },
        {
          "internalType": "address",
          "name": "candidateAddress",
          "type": "address"
        },
        {
          "internalType": "uint256",
          "name": "number",
          "type": "uint256"
        },
        {
          "internalType": "uint256",
          "name": "voteCount",
          "type": "uint256"
        }
      ],
      "stateMutability": "view",
      "type": "function"
    },
    {
      "inputs": [],
      "name": "chairperson",
      "outputs": [
        {
          "internalType": "address",
          "name": "",
          "type": "address"
        }
      ],
      "stateMutability": "view",
      "type": "function"
    },
    {
      "inputs": [
        {
          "internalType": "uint256",
          "name": "votingNumber",
          "type": "uint256"
        }
      ],
      "name": "closeVoting",
      "outputs": [],
      "stateMutability": "payable",
      "type": "function"
    },
    {
      "inputs": [
        {
          "internalType": "string[3]",
          "name": "candidateNames",
          "type": "string[3]"
        },
        {
          "internalType": "address[3]",
          "name": "candidateAddresses",
          "type": "address[3]"
        }
      ],
      "name": "createVoting",
      "outputs": [],
      "stateMutability": "nonpayable",
      "type": "function"
    },
    {
      "inputs": [
        {
          "internalType": "uint256",
          "name": "votingNumber",
          "type": "uint256"
        },
        {
          "internalType": "uint256",
          "name": "candidateNumber",
          "type": "uint256"
        }
      ],
      "name": "vote",
      "outputs": [],
      "stateMutability": "payable",
      "type": "function"
    },
    {
      "inputs": [
        {
          "internalType": "uint256",
          "name": "votingNumber",
          "type": "uint256"
        }
      ],
      "name": "votingDate",
      "outputs": [
        {
          "internalType": "uint256",
          "name": "_numberOfVating",
          "type": "uint256"
        },
        {
          "internalType": "uint256",
          "name": "_candidatesAmount",
          "type": "uint256"
        },
        {
          "internalType": "uint256",
          "name": "_votersAmount",
          "type": "uint256"
        }
      ],
      "stateMutability": "view",
      "type": "function"
    },
    {
      "inputs": [
        {
          "internalType": "uint256",
          "name": "votingNumber",
          "type": "uint256"
        }
      ],
      "name": "votingDates",
      "outputs": [
        {
          "internalType": "uint256[]",
          "name": "votes",
          "type": "uint256[]"
        }
      ],
      "stateMutability": "view",
      "type": "function"
    },
    {
      "inputs": [
        {
          "internalType": "uint256",
          "name": "",
          "type": "uint256"
        }
      ],
      "name": "votings",
      "outputs": [
        {
          "internalType": "uint256",
          "name": "numberOfVating",
          "type": "uint256"
        },
        {
          "internalType": "uint256",
          "name": "candidatesAmount",
          "type": "uint256"
        },
        {
          "internalType": "uint256",
          "name": "votersAmount",
          "type": "uint256"
        }
      ],
      "stateMutability": "view",
      "type": "function"
    },
    {
      "inputs": [
        {
          "internalType": "address payable",
          "name": "receiver",
          "type": "address"
        }
      ],
      "name": "withdrawBalance",
      "outputs": [],
      "stateMutability": "payable",
      "type": "function"
    }
  ],
  "bytecode": "0x60806040526064600655603c6007553480156200001b57600080fd5b50620000507f3887a080ba8fe554bc3e9ca54f221e2fce996f4b4ca96b476a186d5e312672e560001b620000fe60201b60201c565b620000847ffd3f8229ab0b6d315dbbd1b9250f2c1b0dd715ed7bee8d061f2935aff18d488560001b620000fe60201b60201c565b620000b87fc446bfbf5875c3c5efffa8ce454a105e00a5b0c19a0ca4c44a22cc51a42c225a60001b620000fe60201b60201c565b336000806101000a81548173ffffffffffffffffffffffffffffffffffffffff021916908373ffffffffffffffffffffffffffffffffffffffff16021790555062000101565b50565b61284380620001116000396000f3fe6080604052600436106100915760003560e01c8063a71f595b11610059578063a71f595b1461019b578063b384abef146101d8578063b69ef8a8146101f4578063d2111a721461021f578063f45714081461023b57610091565b80630fe2a68d146100965780632e4176cf146100d5578063756af45f146101005780637de142421461011c578063a598d03c1461015c575b600080fd5b3480156100a257600080fd5b506100bd60048036038101906100b89190611d4f565b610264565b6040516100cc93929190611d8b565b60405180910390f35b3480156100e157600080fd5b506100ea61033f565b6040516100f79190611e03565b60405180910390f35b61011a60048036038101906101159190611e5c565b610363565b005b34801561012857600080fd5b50610143600480360381019061013e9190611e89565b6105c7565b6040516101539493929190611f62565b60405180910390f35b34801561016857600080fd5b50610183600480360381019061017e9190611d4f565b6106ac565b60405161019293929190611d8b565b60405180910390f35b3480156101a757600080fd5b506101c260048036038101906101bd9190611d4f565b6106d6565b6040516101cf919061206c565b60405180910390f35b6101f260048036038101906101ed9190611e89565b6108fa565b005b34801561020057600080fd5b50610209610e8e565b604051610216919061208e565b60405180910390f35b61023960048036038101906102349190611d4f565b610f1a565b005b34801561024757600080fd5b50610262600480360381019061025d919061238f565b6115c0565b005b60008060006102957f09324d25c0702458df54ad363efa6dc6c3402bd4e7494252db4458d21b99b08960001b611c5f565b6102c17f5173f82ab198d6936f4eee6112ffdcd884b8565e307d47f0c3b61a1d5e527dca60001b611c5f565b6102ed7f1eeb319a0fbc37d54c166334000b1139e318e469e95be5a37f63b4b1d9a4b73c60001b611c5f565b6003600085815260200190815260200160002060000154600360008681526020019081526020016000206001015460036000878152602001908152602001600020600201549250925092509193909250565b60008054906101000a900473ffffffffffffffffffffffffffffffffffffffff1681565b61038f7f1b032d1fa40b9dc5652b70c14b0b2a235ae3ff926abfa4534b2dd2e7b6ed1cb560001b611c5f565b6103bb7f30d66eaa4ec47667d987e67e05679215e2b0f2fcf6f66cbd00416af8d9035b3e60001b611c5f565b6103e77f059c45000630d1d1d875d9e47269d37f5b3c3c47a0328558befbdf979435167d60001b611c5f565b6104137f980102605c88d5c22721350001a7cfd69ca2128527bca0cb8681e25eae43e9ac60001b611c5f565b60008054906101000a900473ffffffffffffffffffffffffffffffffffffffff1673ffffffffffffffffffffffffffffffffffffffff163373ffffffffffffffffffffffffffffffffffffffff16146104a1576040517f08c379a00000000000000000000000000000000000000000000000000000000081526004016104989061245d565b60405180910390fd5b6104cd7fe72bb15e4dc90eaa73644748c5ecca33299d3a1a07c6e3d0295072b038a0b87d60001b611c5f565b6104f97f0ee98017490a137745e97a224826d53503d2aa5a4ae185338bb91d42e298bf0760001b611c5f565b6105257f84f59de41c11dd88c208c69e7d95aa44eca674fbcc9dc4ef39f7ea4103eed1a360001b611c5f565b6105517fa6e0eb2c1d6b7ae7d2afdf162e95f72b2ab0a6d02e620f6746daec4346d7373f60001b611c5f565b61057d7fece8d3d5dc4bd458957502aa4bf0ca7a676eab414cbf4ad287161c3978cce2be60001b611c5f565b8073ffffffffffffffffffffffffffffffffffffffff166108fc479081150290604051600060405180830381858888f193505050501580156105c3573d6000803e3d6000fd5b5050565b6002602052816000526040600020602052806000526040600020600091509150508060000180546105f7906124ac565b80601f0160208091040260200160405190810160405280929190818152602001828054610623906124ac565b80156106705780601f1061064557610100808354040283529160200191610670565b820191906000526020600020905b81548152906001019060200180831161065357829003601f168201915b5050505050908060010160009054906101000a900473ffffffffffffffffffffffffffffffffffffffff16908060020154908060030154905084565b60036020528060005260406000206000915090508060000154908060010154908060020154905083565b60606107047fb05c3d710edd794f3b2d571568bbd77ec8299b6b078389e678aca1954aa4dc3660001b611c5f565b6107307f749b00ade22fd9c4c1d70e682fe7dc76645f18e8e59134f43cd0101137326cdd60001b611c5f565b61075c7f172301567539c1468d394d861546461a60e9f17bcaaef7e8e14428eb94989cbc60001b611c5f565b606061078a7f2bbee642fd2f6696017c0dab0b1adc9a98c67c61a3ca0be836fe8b60406067ee60001b611c5f565b6107b67fb92a29300b3335cf7cdb15a8714afcb2281b2349c4858261c27d0f466283b2c960001b611c5f565b6000600190505b60036000858152602001908152602001600020600101548111610898576108067f84aed84e307d9d258fc4517769dfdcb67a4fc6e5c1660a1b8a3ad5d35e04b83660001b611c5f565b6108327f1d80d8e50a88c9db74b5fc5c54338805375e48e3885014d46e3f9235656f29f060001b611c5f565b6002600085815260200190815260200160002060008281526020019081526020016000206003015482600183610868919061250d565b8151811061087957610878612541565b5b602002602001018181525050808061089090612570565b9150506107bd565b506108c57fa3ce0d37574f27fd27bac77614d3b55ad543f4d9c50804275baea218ae6388e960001b611c5f565b6108f17ffd91d64e134e143e69e6f3af46e341085f7c66d6950337e0ff60221460f0d0fe60001b611c5f565b80915050919050565b6109267f392d990d0d106b21ff3a5039fb756a181610aee8271da92f3e75c7c8155b014860001b611c5f565b6109527f4c9e9ed3c21b3cfe3130a3421664f0c48d2ee42f2ed95b49f883c9c938d340e160001b611c5f565b61097e7fed64f7e58eb1a890eccbfc8bd295a74e8acd0e2d9c14e38ed2054b85cf89264460001b611c5f565b6109aa7f5bd5f66216f28fbf215a35406c2647d0ec1642edbe8ea4f72f87cfbc02d7854860001b611c5f565b60056000600854815260200190815260200160002054421115610a02576040517f08c379a00000000000000000000000000000000000000000000000000000000081526004016109f990612605565b60405180910390fd5b610a2e7f7b4035775da783a8d4b2ed56ef1d38060f1924c996a6966cfa0a4e15e0ca4c3560001b611c5f565b610a5a7f45e6ff5b66bbd5c36d956f0f5fa1a5ab8adfeecb20eb8cce6dc6dda3211a530060001b611c5f565b610a867f40b6727578c0aae6237ae98b5bd2a8615470ded49f00b06ecfa44a088e65eea160001b611c5f565b610ab27ff158c3399531a7cbd4d61cb4e237c875907afbcfee5420ce079f6dd7982e7fca60001b611c5f565b610ade7f1064b3166272dc3c73dbd3ea5e7369e25ff8adff810dfa25bf42a344e719e56d60001b611c5f565b6000600160003373ffffffffffffffffffffffffffffffffffffffff1673ffffffffffffffffffffffffffffffffffffffff1681526020019081526020016000209050610b4d7f2f048c8a0d0ad9ab1c105524a431588234054f9251b467565124d356d23db20160001b611c5f565b610b797f3af3afdd8379810b46fc47d7fd3b04d716d750b8ee8b64ee136540273025408760001b611c5f565b610ba57f73c23c410d2f7b95313afd1e027163d188e44229ceafee266b0f18ef1dca8df860001b611c5f565b80600001600084815260200190815260200160002060009054906101000a900460ff1615610c08576040517f08c379a0000000000000000000000000000000000000000000000000000000008152600401610bff90612671565b60405180910390fd5b610c347f91edf314384281711a287396360bd311a5d505c71b9ac6a61d3c89365d86a29b60001b611c5f565b610c607f356d087e8dc08e4b50e81ea86bbaad2530cea651d1dbc7561823464d995728b060001b611c5f565b610c8c7fc174475cafd121ac6be7f641dfcbc8330653d46fcc8bd15820d9ddc428c085a060001b611c5f565b610cb87ff18826b32afe832f1cc5c0c809ce8fbb766d5d4e21c9336b9a59f77999ea845a60001b611c5f565b6006543414610cfc576040517f08c379a0000000000000000000000000000000000000000000000000000000008152600401610cf3906126dd565b60405180910390fd5b610d287f709730be351f07c4d0e1219a5ffc2553a237763779bc4a61c8c45cc9cbceedd860001b611c5f565b610d547f65dfec98563092dfa21e761f9f7a212f2d342a553112145d444c19514f12670860001b611c5f565b610d807f4101c4edf42ea56f0bf3d08d12de7e7378e3b79c777784fd5a9a367328b6a88460001b611c5f565b600181600001600085815260200190815260200160002060006101000a81548160ff021916908315150217905550610dda7f8c2dcac441e987ea464fd08cd0492b9fad6b52f21460abcb7c606a7e30f1c9ae60001b611c5f565b610e067fd8eb6c155a92de87392d84cb6f6ea60571bf53acd73e081bbcbbbf4036134e2d60001b611c5f565b8181600101600085815260200190815260200160002081905550610e4c7fd937a2a512ab27e14d3669c961ccba311d599d59c17815c0f382ef490018671f60001b611c5f565b6002600084815260200190815260200160002060008381526020019081526020016000206003016000815480929190610e8490612570565b9190505550505050565b6000610ebc7f3255d2b380ad599bc4f2569c50b9d7339c86b6b4a26b079c60fcae2581ce6d9260001b611c5f565b610ee87f9f83a05b2aa01d14259b9bf487b3aa9f68489126f4be31a618ab6cdf99f911ab60001b611c5f565b610f147f3a63979ee34bc07943dd40173af6343936fb8b32f81ae8f29d47c7597a93fb9160001b611c5f565b47905090565b610f467f1b032d1fa40b9dc5652b70c14b0b2a235ae3ff926abfa4534b2dd2e7b6ed1cb560001b611c5f565b610f727f30d66eaa4ec47667d987e67e05679215e2b0f2fcf6f66cbd00416af8d9035b3e60001b611c5f565b610f9e7f059c45000630d1d1d875d9e47269d37f5b3c3c47a0328558befbdf979435167d60001b611c5f565b610fca7f980102605c88d5c22721350001a7cfd69ca2128527bca0cb8681e25eae43e9ac60001b611c5f565b60008054906101000a900473ffffffffffffffffffffffffffffffffffffffff1673ffffffffffffffffffffffffffffffffffffffff163373ffffffffffffffffffffffffffffffffffffffff1614611058576040517f08c379a000000000000000000000000000000000000000000000000000000000815260040161104f9061245d565b60405180910390fd5b6110847fe72bb15e4dc90eaa73644748c5ecca33299d3a1a07c6e3d0295072b038a0b87d60001b611c5f565b6110b07f0ee98017490a137745e97a224826d53503d2aa5a4ae185338bb91d42e298bf0760001b611c5f565b6110dc7fe4c06185fa667f47cafd1c5e8c3df25f77c3b20a5900ddc8cfe54e9dc3135bac60001b611c5f565b6111087fa0d79d5c7620dff00f63bf28b7895e30793bdeb437bdc42da952e96a5db27e4060001b611c5f565b6111347f784e0f92841b460e9b1b9401c474fc06391dd25a4e721bb2a4bfe9ccd35ad43360001b611c5f565b60006002600083815260200190815260200160002060006001815260200190815260200160002060030154905061118d7fe4264f0d97c0f34cfc229aea5a90e99cf47169b911f5e65f7d83b139276e07cc60001b611c5f565b6111b97fbe74b71a821583978f7640df49d05209543567e3ece75a4797c0c0a88b140d8d60001b611c5f565b6000600260008481526020019081526020016000206000600181526020019081526020016000206002015490506112127f330aebd51bdb879842a9d7fc6632f1167d94b73303c2eeaac118c83e88c56e3b60001b611c5f565b61123e7f0bc7dd252d2d8f822ea555dbf22124ce92f0ef3364e193c01dd41f55fd8033d660001b611c5f565b6000600290505b6003600085815260200190815260200160002060010154811161145e5761128e7f64caaee99125f870b281037e2eb740bb192b785540af8b3a2786f92a2e15b40b60001b611c5f565b6112ba7f97f50010844ec10dbb98685a166d4b1c9f98a2be6de578a51e7230bc57c3134c60001b611c5f565b6002600085815260200190815260200160002060008281526020019081526020016000206003015483101561141e576113157fd5f0dd0c14a3c305b9a454530f5c7ef53d34f1b04ceaae83e6e09719bc4609af60001b611c5f565b6113417f8398f85e7f8bc21c08a4c21e81e66bf240d5ea96f5df2702035d20116a94898d60001b611c5f565b61136d7fe44087c5d43164e2c296fc25767330090a31fc6a468f3257ae490fd3bb555d2a60001b611c5f565b6002600085815260200190815260200160002060008281526020019081526020016000206003015492506113c37f7d7271151bb3e0b0303cb1ceda9d41a3339af07bcb738208fc7df2447b5eadd560001b611c5f565b6113ef7ffc14baee2894b8dc72bd614e49f3c4258976aca65fac14b6d4a71ffd0d3a19ee60001b611c5f565b60026000858152602001908152602001600020600082815260200190815260200160002060020154915061144b565b61144a7ffead74723aa0ada0cd5d8ca6d0c28ecdd7f985f373456a698ca2c1f741e01ee760001b611c5f565b5b808061145690612570565b915050611245565b5061148b7f1b49aeb062ac44cf1b7ed531811ce7f6de6814facf00c83862acd807dbafe3ff60001b611c5f565b6114b77f304d8ecbbf9cc22d98c7532a10fc521c958561312357e33bda6c207cebd90b7960001b611c5f565b600060026000858152602001908152602001600020600083815260200190815260200160002060010160009054906101000a900473ffffffffffffffffffffffffffffffffffffffff16905061152f7f9329107a6a37c56c59e8c60f08766f243454a3ef0b1567b67246661d345a898a60001b611c5f565b61155b7fdd9fa5bb146d4be0d44edbcafde88f0c83a00c37ba00d21799ae55070adb429960001b611c5f565b8073ffffffffffffffffffffffffffffffffffffffff166108fc600a60094761158491906126fd565b61158e9190612786565b9081150290604051600060405180830381858888f193505050501580156115b9573d6000803e3d6000fd5b5050505050565b6115ec7f1b032d1fa40b9dc5652b70c14b0b2a235ae3ff926abfa4534b2dd2e7b6ed1cb560001b611c5f565b6116187f30d66eaa4ec47667d987e67e05679215e2b0f2fcf6f66cbd00416af8d9035b3e60001b611c5f565b6116447f059c45000630d1d1d875d9e47269d37f5b3c3c47a0328558befbdf979435167d60001b611c5f565b6116707f980102605c88d5c22721350001a7cfd69ca2128527bca0cb8681e25eae43e9ac60001b611c5f565b60008054906101000a900473ffffffffffffffffffffffffffffffffffffffff1673ffffffffffffffffffffffffffffffffffffffff163373ffffffffffffffffffffffffffffffffffffffff16146116fe576040517f08c379a00000000000000000000000000000000000000000000000000000000081526004016116f59061245d565b60405180910390fd5b61172a7fe72bb15e4dc90eaa73644748c5ecca33299d3a1a07c6e3d0295072b038a0b87d60001b611c5f565b6117567f0ee98017490a137745e97a224826d53503d2aa5a4ae185338bb91d42e298bf0760001b611c5f565b6117827fa5714f1d9331599fe21049faab70cebd2c5d93e2d1ba1c25a52f5be60fb7187560001b611c5f565b6117ae7fd78a78bfe90f7bfeb09a57d36ad38a07cde9073c23c297fc630f853edf42e09c60001b611c5f565b600860008154809291906117c190612570565b91905055506117f27f0bf995ee4ea69db82e4244e814c11bea2ea94b739173433603687339e6be12cf60001b611c5f565b61181e7f8c066e82b82bb7b508158f85f270e574fa543137357496ae10db6a49a95e560760001b611c5f565b60038060006008548152602001908152602001600020600101819055506118677f8cae26da538fa2fbe657ae60f6d7967a37d2c15abe4eb20142956a12ab4c0aee60001b611c5f565b6118937f7c72d32806ef5d5a8a5be5d6140e5f8bd525dc1284cf820206949bc24f674c4f60001b611c5f565b600854600360006008548152602001908152602001600020600001819055506118de7f71cd7a68bbaaaa7ca916b98a72dbf171598e9fd7e02aa6a575533ac901ab86d460001b611c5f565b61190a7fd6132af9644f15d7aefa5befe9daa1367a68a2bdfb3b07fa8327fb57660cc5e760001b611c5f565b60005b60036000600854815260200190815260200160002060010154811015611b7a576119597f359ab59e0feb09f62b2466c73754c6c1f244edc48c143329b759bc29c5cfcd1960001b611c5f565b6119857fc230ecdf3f6b72c04dc019a2ea6e5b85a4514328f6aa327b0830f24a555c5b6960001b611c5f565b82816003811061199857611997612541565b5b602002015160026000600854815260200190815260200160002060006001846119c191906127b7565b815260200190815260200160002060000190805190602001906119e5929190611c62565b50611a127fee4a64b5e2efca9803a11c2811b78356dd11d01e0770cbeb1eb4f8a3fe77856960001b611c5f565b611a3e7fdad4192229c581bb9d3fb5be9505de4483340993959f06e6250e09bfee9543f560001b611c5f565b818160038110611a5157611a50612541565b5b60200201516002600060085481526020019081526020016000206000600184611a7a91906127b7565b815260200190815260200160002060010160006101000a81548173ffffffffffffffffffffffffffffffffffffffff021916908373ffffffffffffffffffffffffffffffffffffffff160217905550611af57fb8210183c0e8922a5ad24a16188fbbc1fc38b3843e35cd3ade97a7c8da9a286460001b611c5f565b611b217f9533d038370ba8966a369baedf3ad756407ea63b6a26d76a4b210b0f3de79f1f60001b611c5f565b600181611b2e91906127b7565b6002600060085481526020019081526020016000206000600184611b5291906127b7565b8152602001908152602001600020600201819055508080611b7290612570565b91505061190d565b50611ba77fefba2a44c779564ae0e2e8ec6582bc0d48442eb91c522630b68cde760053ec8f60001b611c5f565b611bd37ff922a97c71917b7a7cf90726c0774acb3f743d266ab992eb98ec52dacf20fe6e60001b611c5f565b42600481905550611c067f56b287a2909c7ea65457305962a71888a7f2f00684fa5006035a4390ab1f108660001b611c5f565b611c327f0110ea78ce626a5a3c1b9ccfd025e6b228e0156d53f17e9bf0e2235a996351fd60001b611c5f565b600754600454611c4291906127b7565b600560006008548152602001908152602001600020819055505050565b50565b828054611c6e906124ac565b90600052602060002090601f016020900481019282611c905760008555611cd7565b82601f10611ca957805160ff1916838001178555611cd7565b82800160010185558215611cd7579182015b82811115611cd6578251825591602001919060010190611cbb565b5b509050611ce49190611ce8565b5090565b5b80821115611d01576000816000905550600101611ce9565b5090565b6000604051905090565b600080fd5b600080fd5b6000819050919050565b611d2c81611d19565b8114611d3757600080fd5b50565b600081359050611d4981611d23565b92915050565b600060208284031215611d6557611d64611d0f565b5b6000611d7384828501611d3a565b91505092915050565b611d8581611d19565b82525050565b6000606082019050611da06000830186611d7c565b611dad6020830185611d7c565b611dba6040830184611d7c565b949350505050565b600073ffffffffffffffffffffffffffffffffffffffff82169050919050565b6000611ded82611dc2565b9050919050565b611dfd81611de2565b82525050565b6000602082019050611e186000830184611df4565b92915050565b6000611e2982611dc2565b9050919050565b611e3981611e1e565b8114611e4457600080fd5b50565b600081359050611e5681611e30565b92915050565b600060208284031215611e7257611e71611d0f565b5b6000611e8084828501611e47565b91505092915050565b60008060408385031215611ea057611e9f611d0f565b5b6000611eae85828601611d3a565b9250506020611ebf85828601611d3a565b9150509250929050565b600081519050919050565b600082825260208201905092915050565b60005b83811015611f03578082015181840152602081019050611ee8565b83811115611f12576000848401525b50505050565b6000601f19601f8301169050919050565b6000611f3482611ec9565b611f3e8185611ed4565b9350611f4e818560208601611ee5565b611f5781611f18565b840191505092915050565b60006080820190508181036000830152611f7c8187611f29565b9050611f8b6020830186611df4565b611f986040830185611d7c565b611fa56060830184611d7c565b95945050505050565b600081519050919050565b600082825260208201905092915050565b6000819050602082019050919050565b611fe381611d19565b82525050565b6000611ff58383611fda565b60208301905092915050565b6000602082019050919050565b600061201982611fae565b6120238185611fb9565b935061202e83611fca565b8060005b8381101561205f5781516120468882611fe9565b975061205183612001565b925050600181019050612032565b5085935050505092915050565b60006020820190508181036000830152612086818461200e565b905092915050565b60006020820190506120a36000830184611d7c565b92915050565b600080fd5b7f4e487b7100000000000000000000000000000000000000000000000000000000600052604160045260246000fd5b6120e682611f18565b810181811067ffffffffffffffff82111715612105576121046120ae565b5b80604052505050565b6000612118611d05565b905061212482826120dd565b919050565b600067ffffffffffffffff821115612144576121436120ae565b5b602082029050919050565b600080fd5b600080fd5b600067ffffffffffffffff821115612174576121736120ae565b5b61217d82611f18565b9050602081019050919050565b82818337600083830152505050565b60006121ac6121a784612159565b61210e565b9050828152602081018484840111156121c8576121c7612154565b5b6121d384828561218a565b509392505050565b600082601f8301126121f0576121ef6120a9565b5b8135612200848260208601612199565b91505092915050565b600061221c61221784612129565b61210e565b905080602084028301858111156122365761223561214f565b5b835b8181101561227d57803567ffffffffffffffff81111561225b5761225a6120a9565b5b80860161226889826121db565b85526020850194505050602081019050612238565b5050509392505050565b600082601f83011261229c5761229b6120a9565b5b60036122a9848285612209565b91505092915050565b600067ffffffffffffffff8211156122cd576122cc6120ae565b5b602082029050919050565b6122e181611de2565b81146122ec57600080fd5b50565b6000813590506122fe816122d8565b92915050565b6000612317612312846122b2565b61210e565b905080602084028301858111156123315761233061214f565b5b835b8181101561235a578061234688826122ef565b845260208401935050602081019050612333565b5050509392505050565b600082601f830112612379576123786120a9565b5b6003612386848285612304565b91505092915050565b600080608083850312156123a6576123a5611d0f565b5b600083013567ffffffffffffffff8111156123c4576123c3611d14565b5b6123d085828601612287565b92505060206123e185828601612364565b9150509250929050565b7f4f6e6c79206368616972706572736f6e2063616e20737461727420616e64206560008201527f6e642074686520766f74696e6700000000000000000000000000000000000000602082015250565b6000612447602d83611ed4565b9150612452826123eb565b604082019050919050565b600060208201905081810360008301526124768161243a565b9050919050565b7f4e487b7100000000000000000000000000000000000000000000000000000000600052602260045260246000fd5b600060028204905060018216806124c457607f821691505b602082108114156124d8576124d761247d565b5b50919050565b7f4e487b7100000000000000000000000000000000000000000000000000000000600052601160045260246000fd5b600061251882611d19565b915061252383611d19565b925082821015612536576125356124de565b5b828203905092915050565b7f4e487b7100000000000000000000000000000000000000000000000000000000600052603260045260246000fd5b600061257b82611d19565b91507fffffffffffffffffffffffffffffffffffffffffffffffffffffffffffffffff8214156125ae576125ad6124de565b5b600182019050919050565b7f566f74696e6720697320636c6f73656400000000000000000000000000000000600082015250565b60006125ef601083611ed4565b91506125fa826125b9565b602082019050919050565b6000602082019050818103600083015261261e816125e2565b9050919050565b7f416c726561647920766f7465642e000000000000000000000000000000000000600082015250565b600061265b600e83611ed4565b915061266682612625565b602082019050919050565b6000602082019050818103600083015261268a8161264e565b9050919050565b7f496e76616c696420416d6f756e74000000000000000000000000000000000000600082015250565b60006126c7600e83611ed4565b91506126d282612691565b602082019050919050565b600060208201905081810360008301526126f6816126ba565b9050919050565b600061270882611d19565b915061271383611d19565b9250817fffffffffffffffffffffffffffffffffffffffffffffffffffffffffffffffff048311821515161561274c5761274b6124de565b5b828202905092915050565b7f4e487b7100000000000000000000000000000000000000000000000000000000600052601260045260246000fd5b600061279182611d19565b915061279c83611d19565b9250826127ac576127ab612757565b5b828204905092915050565b60006127c282611d19565b91506127cd83611d19565b9250827fffffffffffffffffffffffffffffffffffffffffffffffffffffffffffffffff03821115612802576128016124de565b5b82820190509291505056fea2646970667358221220ce54468742100ff3f656b92b377ffacf53f289924d5195c90f52f4d16777f2d864736f6c63430008090033",
  "linkReferences": {},
  "deployedLinkReferences": {}
}